:020000040000FA
:10000000403B0220F902000001030000FF03000052
:1000100005030000070300000903000000000000C2
:100020000000000000000000000000000B030000C2
:100030000D030000000000004B030000110300004E
:1000400021100000130300001115000075120000BC
:100050001303000013030000D10700001303000086
:100060001303000013030000130300001303000038
:100070001303000013030000130300001303000028
:100080001303000005110000130300001303000018
:100090001303000013030000130300001303000008
:1000A00013030000130300001303000013030000F8
:1000B0001303000013030000000000000000000014
:1000C00013030000130300001303000013030000D8
:1000D00013030000130300001303000013030000C8
:1000E000130300007910000013030000000000005B
:1000F0000000000013030000000000008512000053
:1001000000000000000000000000000000000000EF
:1001100000000000000000000000000000000000DF
:1001200000000000000000000000000000000000CF
:1001300000000000000000000000000000000000BF
:1001400000000000000000000000000000000000AF
:10015000000000000000000000000000000000009F
:10016000000000000000000000000000000000008F
:10017000000000000000000000000000000000007F
:10018000000000000000000000000000000000006F
:10019000000000000000000000000000000000005F
:1001A000000000000000000000000000000000004F
:1001B000000000000000000000000000000000003F
:1001C000000000000000000000000000000000002F
:1001D000000000000000000000000000000000001F
:1001E000000000000000000000000000000000000F
:1001F00000000000000000000000000000000000FF
:10020000DFF80CD000F042FA00480047C1070000B8
:10021000403B022030B4044654E8000F0D4644E849
:100220000053002BF8D1156030BC704730B4044641
:1002300054E8000F40EA010544E80053002BF7D1D1
:10024000156030BC704730B4044654E8000F00EA33
:10025000010544E80053002BF7D1156030BC70470E
:1002600030B4044654E8000F80EA010544E8005326
:10027000002BF7D1156030BC704730B4044654E809
:10028000000F00EB010544E80053002BF7D1156087
:1002900030BC704730B4044654E8000FA0EB0105B1
:1002A00044E80053002BF7D1156030BC704770B4A0
:1002B00004464FF0000054E8006F0D68AE4207BFDF
:1002C00044E80023012044E800630E60002B1CBFBB
:1002D0000020F0E770BC704730B4044654E8000FCB
:1002E00088422CBF451A054644E80053002BF5D13F
:1002F000156030BC7047000006488047064800473C
:10030000FEE7FEE7FEE7FEE7FEE7FEE7FEE7FEE7C5
:10031000FEE7FEE73513000001020000EFF3108056
:1003200072B6704780F310887047434A1368012BF8
:1003300004D04FF001031360404A1060404A11603E
:1003400040484FF0805101607047EFF3108272B661
:100350003948016851B34FF0000101603748016826
:1003600091B1EFF309811EF0100F08BF21ED108B42
:1003700021E9F00F4FF000041EF0100F08BF012418
:1003800041F8044D006801602D490968096808C9F1
:10039000B1E8F00F002B18BFB1EC108B81F3098886
:1003A0004EF0100E002B18BF2EF0100E82F31088A6
:1003B0004EF0040E704722490860EFF3148222F0D9
:1003C000040282F314881D494FF0000008601A49A6
:1003D0004FF0010008601C484FF47F01D0F8002066
:1003E00041EA0201016017484FF08051016017484F
:1003F0000068006880F3088861B662B670471EF036
:10040000040F0CBFEFF30880EFF3098020E9F00F31
:1004100040F804ED40F804ED1EF0040F0CBF80F32B
:10042000088880F3098800B527F0E4FA5DF804EB4A
:100430004EF0040E70470000D0000020C8000020DD
:10044000CC00002004ED00E020ED00E008ED00E02D
:100450002DE9F05F0546002092469B4688460646F9
:10046000814640241BE0284641464746224600F08C
:10047000C5F853465A46C01A914110D31146184642
:10048000224600F0ACF82D1A67EB01084F462246D1
:100490000120002100F0A3F817EB00094E41201EB7
:1004A000A4F10104DFDC484631462A464346BDE854
:1004B000F09F00000048704720BE030010B5431AAB
:1004C000934209D28318881803E010F8011D03F83D
:1004D000011D521EF9D210BD40EA01039B0703D053
:1004E00009E008C9121F08C0042AFAD203E011F873
:1004F000013B00F8013B521EF9D210BDD2B201E01F
:1005000000F8012B491EFBD270470022F6E710B518
:1005100013460A4604461946FFF7F0FF204610BD71
:10052000421E12F8013F002BFBD111F8013B02F8EB
:10053000013B002BF9D1704710B5044604E00B785D
:1005400000F8013B03B1491C521EF8D2204610BDF1
:10055000421C10F8011B0029FBD1801A704710B50E
:10056000002200E0521C835C8C5CA34201D1002B72
:10057000F8D1D8B2E1B2401A10BD30B5044600201F
:10058000034600E05B1C934203D2E05CCD5C401B61
:10059000F8D030BD034611F8012B00F8012B002ADA
:1005A000F9D11846704730B505460020034600E0F3
:1005B0005B1C934205D2EC5CC85C201A01D1002C74
:1005C000F6D130BD70B5064601F094F804680546D2
:1005D0000A220021304600F021F82C6070BD202A4C
:1005E00004DB203A00FA02F1002070479140C2F18A
:1005F000200320FA03F3194390407047202A04DBBC
:10060000203A21FA02F00021704721FA02F3D0408B
:10061000C2F1200291400843194670472DE9F04786
:1006200091460F4680460446002614F8015B2DB122
:10063000FFF740FF0068405DC007F6D12B2D02D0C8
:100640002D2D18D0641E4A463946204600F030F859
:1006500027B13968A14201D1C7F8008071054FF078
:1006600002040BD54042002803DD01F043F804608A
:10067000A007BDE8F08746F48066E4E70028F8DAD2
:1006800001F038F804606FF00040F2E7064C074DC7
:1006900006E0E06840F0010394E807009847103452
:1006A000AC42F6D3FFF7B0FD30D9030050D90300B8
:1006B0002DE9F05F82460078002715468B460AF147
:1006C0000104B946302801D09DB113E014F8010BA4
:1006D0000127782803D0582801D045B10AE00DB190
:1006E000102D07D10027102514F8010B02E0082572
:1006F00000E00A250026B0460EE005FB080005FBD9
:1007000006F1012701EB10461FFA80F8B6F5803F8D
:1007100000D3B94614F8010B294600F018F8002858
:10072000EBDABBF1000F05D00FB1641E00E05446B8
:10073000CBF80040B9F1000F06D000F0DBFF02213A
:100740000160C81EBDE8F09F48EA0640FAE73A2873
:1007500000D2303820F02002412A01D3A2F1370024
:10076000884201D34FF0FF30704770B58C1810F8F5
:10077000015B15F0070301D110F8013B2A1106D1E6
:1007800010F8012B03E010F8016B01F8016B5B1E00
:10079000F9D12B0705D40023521E0DD401F8013BDB
:1007A000FAE710F8013BCB1A921C03E013F8015B47
:1007B00001F8015B521EF9D5A142D8D3002070BDCB
:1007C00010B5FFF7ABFD2AF041FC002010BD000082
:1007D0002DE9F04F8FB000245B4900940194096823
:1007E0004FF4BE7001297DD123F0BAFB6A46022185
:1007F000002023F09FFB0020544B0A94421EEB463E
:1008000008A90B9441F82020401C8A460228F9D3FD
:10081000994600254FEA050606EB460109EB8108DB
:1008200039F9214098F80270601C5AD008A9204676
:1008300023F0DAF860B3D8F80400C7F381075FEA61
:10084000000802D0032F02D00DE0032F49D10DF193
:10085000280CE00804F007011CF8003001228A404F
:1008600013430CF8003005A8059423F02BFB0599E1
:1008700000EB8100D0F800076946C0F30140059005
:10088000204623F0B1F80028059802D0022802D0B3
:1008900027E0032825D1032F1CD102284DD00220A8
:1008A0000D90059405A823F00DFB059900EB81013F
:1008B000D1F8002722F44032C1F80027059900EB57
:1008C0008101D1F800270D9842EA0040C1F80007E5
:1008D0006D1CEDB2B8F1000F03D044EA8710414619
:1008E000884700E026E0761CF6B2302E94D3002D27
:1008F00020D003AA0221002023F01CFB00205A462E
:100900000DF10C0152F8204051F82030A34216D0CE
:1009100000200AAC4FEA0A0351F8206042F8206038
:1009200054F8206043F82060401C0228F4D3002DC6
:100930007FF46FAF0FB0BDE8F08F0320B0E7401C2D
:100940000228DFD3F6E700007C6100407C02002033
:100950000549086810F8082D10F8043F1A4400F8FB
:10096000042C08607047000020020020034908683A
:1009700070E902231A4404C0086070472002002076
:100980000549086830F8082D30F8043F1A4420F86B
:10099000042C086070470000200200200549086808
:1009A00010F8082D10F8043F1A4000F8042C0860D5
:1009B00070470000200200200349086870E9022304
:1009C0001A4004C0086070472002002005490868EA
:1009D00030F8082D30F8043F1A4020F8042C086045
:1009E00070470000200200200348006810F8041D32
:1009F000C9430170704700002002002003480068CE
:100A000050F8041DC9430160704700002002002017
:100A10000348006830F8041DC94301807047000096
:100A20002002002070B57A4A9CB07A4D11680CAB58
:100A300011F8010B11602A680021121F2A6008E0DA
:100A4000461A03EB860652F8044946F8044C491C42
:100A50002A608142F4D3146811287DD2DFE800F0C7
:100A6000090B0E12171C232C36404D5C6C7D90A593
:100A7000BB00002000E00C98A047C3E0DDE90C01BA
:100A8000A047BFE00CAB93E80700A047BAE00CAE6C
:100A900096E80F00A047B5E010980CAE009096E8DD
:100AA0000F00A047AEE0DDE910010CAECDE900017A
:100AB00096E80F00A047A5E010AB0CAE93E8070046
:100AC0008DE8070096E80F00A0479BE010AE96E87F
:100AD0000F008DE80F000CAE96E80F00A04791E0E4
:100AE00011AE96E80F0001AE86E80F0010980CAE2C
:100AF000009096E80F00A04784E012AE96E80F0041
:100B000002AE86E80F00DDE910010CAECDE9000170
:100B100096E80F00A04775E013AE96E80F0003AE0D
:100B200086E80F0010AB0CAE93E807008DE80700D5
:100B300096E80F00A04765E014AE96E80F0004AEFB
:100B400086E80F0010AE96E80F008DE80F000CAE9F
:100B500096E80F00A04755E053E015AE96E80F0069
:100B600005AE86E80F0011AE96E80F0001AE86E8EC
:100B70000F0010980CAE009096E80F00A04741E0DF
:100B800016AE96E80F0006AE86E80F0012AE96E8A5
:100B90000F0002AE86E80F00DDE910010CAECDE9D2
:100BA000000196E80F00A0472CE017AE96E80F0072
:100BB00007AE86E80F0013AE96E80F0003AE86E896
:100BC0000F0010AB0CAE93E807008DE8070096E825
:100BD0000F00A04716E018AE96E80F0008AE86E8B2
:100BE0000F0014AE96E80F0004AE86E80F0010AEBA
:100BF00096E80F008DE80F000CAE96E80F00A047B6
:100C000000E00020296801C129601CB070BD00000F
:100C100024020020200200200549086810F8082D51
:100C200010F8043FB2FBF3F200F8042C08607047A0
:100C3000200200200449086870E9022392FBF3F2C5
:100C400004C00860704700002002002005490868C1
:100C500030F9082D30F9043F92FBF3F220F8042C10
:100C600008607047200200200548064A01680B789A
:100C7000116801F8043B11600168491C016070476C
:100C8000240200202002002006480168CA780B6870
:100C900062F31F63044A116808C111600168091DED
:100CA00001607047240200202002002007480168EC
:100CB000CA78096862F31F61054A0B78116801F868
:100CC000043B11600168091D016070472402002087
:100CD000200200200348006850F8041D09780170C4
:100CE000704700002002002007480168CA780968A0
:100CF00062F31F61054A0B68116808C11160016841
:100D0000091D01607047000024020020200200201D
:100D10000348006850F8041D09680160704700002E
:100D20002002002007480168CA78096862F31F6141
:100D3000054A0B88116821F8043B11600168091D00
:100D40000160704724020020200200200348006850
:100D500050F8041D0988018070470000200200201F
:100D60000548064A01680B88116821F8043B1160A8
:100D70000168891C016070472402002020020020C5
:100D8000074910B5086810F8082D10F8043FB2FBA9
:100D9000F3F403FB142200F8042C086010BD0000DB
:100DA00020020020054910B5086870E9022392FB73
:100DB000F3F403FB142204C0086010BD20020020DD
:100DC000074910B5086830F9082D30F9043F92FB47
:100DD000F3F403FB142220F8042C086010BD00007B
:100DE000200200200549086810F8082D10F8043F7B
:100DF00012FB03F200F8042C086070472002002068
:100E00000349086870E902235A4304C00860704728
:100E1000200200200549086830F8082D30F8043F0A
:100E200012FB03F220F8042C086070472002002017
:100E3000704700000549086810F8082D10F8043FB5
:100E40001A4300F8042C08607047000020020020BC
:100E50000349086870E902231A4304C00860704718
:100E6000200200200549086830F8082D30F8043FBA
:100E70001A4320F8042C086070470000200200206C
:100E800002480168091F016070470000200200202D
:100E90000549086810F8082D10F8043F9A4000F83A
:100EA000042C0860704700002002002005490868F3
:100EB00050F8082D10F8043F9A4040F8042C0860C0
:100EC00070470000200200200549086830F8082D0E
:100ED00010F8043F9A4020F8042C08607047000086
:100EE000200200200549086810F8082D10F8043F7A
:100EF000DA4000F8042C086070470000200200204F
:100F00000549086850F8082D10F8043F1A4140F8C8
:100F1000042C086070470000200200200549086882
:100F200030F9082D10F8043F1A4120F8042C08600D
:100F300070470000200200200548016811F8042CC9
:100F400051F8081C0A700168091F01607047000011
:100F50002002002004480168083906C90A600168B7
:100F6000091F016070470000200200200548016849
:100F700031F8042C51F8081C0A800168091F01602F
:100F800070470000200200200549086810F8082D6D
:100F900010F8043FD21A00F8042C086070470000D3
:100FA000200200200349086870E90223D21A04C015
:100FB00008607047200200200549086830F8082DB5
:100FC00030F8043FD21A20F8042C08607047000063
:100FD000200200200549086810F8082D10F8043F89
:100FE0005A4000F8042C08607047000020020020DE
:100FF0000349086870E902235A4004C0086070473A
:10100000200200200549086830F8082D30F8043F18
:101010005A4020F8042C086070470000200200208D
:1010200070B54FF48076304622F0E6FC114CB505E1
:1010300060B1304622F0E7FC0120C5F80803607972
:1010400020B9012060712168002088474FF4827622
:10105000304622F0D1FC00280AD0304622F0D3FCE2
:101060000220C5F808032168BDE870400120084748
:1010700070BD00009800002010B50A4C4FF480713C
:10108000204623F0EFFA00280AD0074800214171DA
:10109000C4F8001102688168BDE8104000201047C4
:1010A00010BD000000900240E8F60120F0B50024D9
:1010B000461822E010F8011B01F07F0567199F42D6
:1010C00002D94FF0FF30F0BD09064FF0000106D401
:1010D00011E007781755641C491CA4B289B2A942D3
:1010E000F7D3401C09E000BF10F8017B1755641CC2
:1010F000491CA4B289B2A942F6D38642DAD8204666
:10110000F0BD000038B526F0EBFF0D48D0F80445DF
:101110000021C0F80011D0F80001009029F0D4FBA4
:10112000201A20F07F4404E029F03CFA08B129F0AD
:10113000D1FB641EF8D2BDE8384026F0EFBF0000B6
:101140000010014000F02CBA2DE9F84304461C4879
:10115000007808B900F024FAFF2000258DF800007F
:101160004FF0FF38102C27D21648154E005D8DF831
:1011700001001836002003F099FF307D114F00F078
:1011800003007F1E02280BD0304600F03DFA0228F3
:101190000DD33C7002226946304600F08AFA07E01F
:1011A0003C7002226946304600F056FA00E045469F
:1011B000002003F07DFF00E045462846BDE8F883A7
:1011C0004CF70120B100002070B50B4B06461446C9
:1011D00018780D4608B900F0E3F9002003F066FF27
:1011E00022462946304600F009F80446002003F064
:1011F0005FFF204670BD00004CF7012070B50E4621
:10120000144900EB400001EBC0051446E86A1835AC
:1012100020B101280FD0022805D113E0284600F0A4
:10122000F3F9A04201D2002411E0224631462846BB
:1012300000F03FFA0BE0284600F0E6F9A042F4D2B5
:101240000446F2E73146284600F006FA04462046F6
:1012500070BD00004CF7012070B505460C460846ED
:10126000FFF776F9024621462846BDE87040FFF7B1
:10127000ABBF0000014902482DF006BB18F7012062
:1012800000300040F8B51448144E04464FF48C71F9
:1012900023F0EDF900281DD00025C4F81851D4F82A
:1012A0001801009096F820003446FF2808D0A17F4E
:1012B00031B9E17F11B122F0AEFD01E022F025FE4F
:1012C00065772572D4E9002101B004F10800BDE87A
:1012D000F0401047F8BD000000F00240F4F6012095
:1012E00008B5002022F0B2FB10482021C0F80815F4
:1012F0000021C0F80011D0F8002100920122C0F8AE
:101300000423C0F80411D0F8041100910221C0F8A0
:101310000413826002600649E02081F800044FF067
:10132000E0215004C1F8000108BD00000010014098
:1013300011E000E030B54FF0805000228300D0F87B
:101340003011C3F80C21C3F81021624B1A60624BB4
:101350001B68624C2360604B1B1D1B68241D2360AF
:101360005D4B08331B68241D23605B4B0C331B68EB
:10137000241D2360584B10331B68241D2360564BDB
:1013800014331B68241D2360534B18331B68534CC4
:1013900020342360504B1C331B68241D23604E4BAC
:1013A00020331B68241D23604B4B24331B68241DF2
:1013B0002360494B28331B68241D2360464B2C3384
:1013C0001B68241D2360444B30331B68434C40345E
:1013D0002360414B34331B68241D23603E4B38335C
:1013E0001B68241D23603C4B3C331B68241D236079
:1013F000394B40331B68241D23600124082902D186
:10140000D0F8343113B1082904D006E0354B344903
:10141000196005E0D0F8343113B1082904D006E092
:10142000314BFB21196005E0D0F8343113B10829A4
:1014300008D00EE090F858322C48016863F303019D
:10144000016002E0D0F834311BB929494FF4007033
:10145000086028480168C90702D06FF001010160E7
:101460002548016841F470010160BFF34F8FBFF35D
:101470006F8F4FF01021D1F80002002803DBD1F864
:101480000402002822DA1D4B1C601D480468002C51
:10149000FCD01224C1F800420568002DFCD0C1F830
:1014A000044201680029FCD01A6001680029FCD0C0
:1014B000BFF34F8F10487C380168124A01F4E06195
:1014C00011430160BFF34F8F00BFFDE70F490E4886
:1014D000086030BD380500400404001020C50040FD
:1014E000488103008C56004018F50040E40E00408F
:1014F000409602400004004088ED00E004E5014011
:1015000000E401400400FA050090D003240000200C
:1015100070B5214D4FF40071284623F0C3F850B147
:101520004FF492742146284623F0B1F818B12146B1
:10153000284623F0B1F80421284623F0B3F8174CCD
:1015400050B14FF48471284623F0A1F820B12068EF
:101550000121006826F0AAFB8021284623F0A2F88A
:1015600050B14FF48E71284623F091F820B12068D5
:101570000221006826F09AFB4FF4A271284623F05E
:1015800086F8002806D0206805210068BDE8704074
:1015900026F08CBB70BD00000020004044020020FB
:1015A00010B5124C02202061606111A0A06104F10D
:1015B0007800E0614FF4007020620020A062606259
:1015C0000BA1A164E06204F51E71E1641021A06525
:1015D000C4E91410E06509A1E01DFEF7DBFF08A1D6
:1015E0002046FEF7D7FF2020A07110BD4CF7012048
:1015F0005465726D696E616C0000000052545400B5
:1016000053454747455200000269C1688A4203D8E2
:101610008068401A104400E0501A401E704700F0E5
:101620001F02012191404009800000F1E020C0F834
:101630008012C0F8001170474907090E002806DA29
:1016400000F00F0000F1E02080F8141D704700F159
:10165000E02080F8001470472DE9F047C468174671
:10166000894606464FF000083069A04201D9051BA3
:1016700002E0B168201A0D1AB0686D1E001BA84266
:1016800000D80546BD4200D33D4670682A46204436
:101690004946FEF713FFB0687F1B2C44A844A944B9
:1016A000A04200D10024F460002FDDD14046BDE807
:1016B000F0872DE9F04104468846D4E90207C51BAE
:1016C000E168606816460844B54206D94146FEF70F
:1016D000F5FEB819E060BDE8F0812A464146FEF704
:1016E000EDFE761B08EB050132466068FEF7E6FE6C
:1016F000E660F0E7004870474C0700202DE9F0470E
:101700000D4620293FD3A5F10A0045F2DA31244CD9
:10171000A5F560464FF4C85845F2E33788420FD329
:1017200003F0DAFB426861688A422ED046452CD22B
:10173000294602E01A4862683946BDE8F04710477A
:101740002A46642117480EF0F5FF00B2411CE7D08D
:1017500000EB4001134841F2AF1300EB81014868F0
:10176000098942189A420ED8104ADFF83C9010447A
:101770004FF480634A46801DFFF798FC401CCFD091
:101780004846BDE8F0870020FBE703F07FFB426896
:1017900061688A42CED029469047BD42CAD0F0E760
:1017A000E4040020A445030090090220544A0300E9
:1017B0002DE9F05F9B4616460D46202A02D20020F6
:1017C000BDE8F09FA6F10A0045F2DA312A4CA6F5F1
:1017D00060474FF4C85845F2E3394FF0FF3A88426A
:1017E0002ED2642125480EF0A5FF00B2411C27D05F
:1017F000224900EB400001EB800001F59661406852
:1018000008440178A9804178E9808178298190F99C
:101810000310698190F90400A881A87B20F00F00D3
:10182000801CA8731BE000BF03F030FB0768216831
:101830008F4216D0534632462946B84778B910E051
:1018400003F04AFBD0F800C021688C45ECD0474536
:10185000EAD2534632462946E0470028E4D0012028
:10186000AEE724685B464A462946A446BDE8F04FE9
:1018700001485DF804EB6047E4040020A445030040
:101880002DE9F04194468846040059D020792D4D29
:10189000032630B128882CA106EB004022F03AFD47
:1018A00041E0206808B934482060002753B1014660
:1018B000142260469847142809D028882FA106EBE7
:1018C000004021E0288832A106EB00401CE020689F
:1018D00001784A2914D141786F2911D1817868297A
:1018E0000ED1C1786E290BD101795F2908D14179D8
:1018F0004C2905D18179492902D1C179422906D0E3
:1019000028882AA106EB004022F004FD15E081683A
:1019100041450BD10127677128882AA106EB0040B9
:1019200022F0F8FC27710120BDE8F08128882BA166
:1019300006EB004022F0EEFC6771206800B12760E2
:101940000020F1E784C90120466F6E74206C696243
:1019500020696E697469616C65642C204E4F206E3D
:1019600065656420746F20696E697420616E796D9D
:101970006F72650A00000000080E02205265616463
:101980002064617461206572726F720A0000000049
:10199000705F6765745F646174615F66756E632014
:1019A000696E76616C69646174650A00496E76617E
:1019B0006C696461746520666F6E742066696C651D
:1019C0000A000000466F6E74206C696220696E69BF
:1019D0007420737563636573730A000021212146C7
:1019E0006F6E74206C69622076657273696F6E2009
:1019F0006572726F720A00007CB50E4601002948BC
:101A00004FF003028C69008802EB004005D024B13E
:101A1000A168B14203D1E0687CBD23A11FE0256825
:101A2000E5B16969B14219D32A69B24216D863682F
:101A3000A3B1A98B91B1286AA0B16B79012B2AD0EF
:101A400032460EF077FE00B2411C28D0A660296A0B
:101A500000EB400001EB8000E0607CBD1BA122F0A8
:101A600059FC1CE06879012819D1B01A80B2A96923
:101A700000EB400001EB400006226946984706282B
:101A80000DD11848066000994160BDF8041001812D
:101A9000C4E902607CBDB01A80B28142D6D8002071
:101AA0007CBD000084C9012070466F6E7420726F87
:101AB00020705F666F6E745F757365725F646174CA
:101AC00061206973204E554C4C00000070617261BA
:101AD0006D65746572206572726F72206F72204E30
:101AE000554C4C008405022070B5202929D3A1F162
:101AF000090049F61F32174C45F2E335904222D2D5
:101B00000A46F32114480EF015FE00B2411C1AD00B
:101B100000EB4001104843F6963300EB8101486822
:101B2000098942189A420CD80D4A0C4E10444FF4C1
:101B300080633246801DFFF7B9FA401C03D030465F
:101B400070BD002070BD29466268BDE87040014844
:101B500010470000E4040020C86703009009022039
:101B60002C7303002DE9F0411F460C46202A02D2B7
:101B70000020BDE8F081A2F1090049F61F31194D9E
:101B800045F2E336884201D32D6824E0F32116485C
:101B90000EF0D0FD00B2411C1BD0134900EB4000F9
:101BA00001EB800001F66431406808440178A180AF
:101BB0004178E1808178218190F90310618190F969
:101BC0000400A081A07B20F00F00801CA0730120E6
:101BD000CFE72D683B4632462146AC46BDE8F04192
:101BE00000486047E4040020C8670300002807D0CD
:101BF0000E4910F0FF0F04D051FA80F00078401C1D
:101C0000704710F47F4F04D0C0F30720085C093000
:101C1000704710F47F0F04D0C0F30740085C113008
:101C2000704701EB1060007819307047F8F6020039
:101C300002E008C8121F08C1002AFAD17047704795
:101C4000002001E001C1121F002AFBD170470000F3
:101C50002DE9F047314E02004FF0030730889569B7
:101C6000884607EB004006D02DB1B8F1200F04D212
:101C70000020BDE8F0872AA14DE0DFF8C890546845
:101C8000D9F804309C4209D0296861B16C6864B10C
:101C90004869404502D30869404508D94146BDE836
:101CA000F0472848184728A135E02CA133E04146E9
:101CB0001046FFF7A1FE60B1048943684CB14FF4B0
:101CC0008068A41F44450BD930882FA107EB004042
:101CD00021E04146D9F80420BDE8F04719481047F3
:101CE0006D6822462E49981DA847A04204D030882E
:101CF0002CA107EB00400EE0304AA1B24346144647
:101D00002748FFF7D3F9401C01D02046B1E73088BF
:101D10002BA107EB004022F0FDFAA9E784C90120BE
:101D200070466F6E74206F7220705F666F6E745FA6
:101D3000757365725F64617461206973204E554CE0
:101D40004C000000E4040020705F666F6E745F69F1
:101D50006E666F206973204E554C4C00705F666F45
:101D60006E745F757365725F646174612D3E705F40
:101D70006765745F646174615F66756E6320697323
:101D8000204E554C4C000000676C7970685F6461B0
:101D900074615F73697A6520746F6F206269670090
:101DA00090050220676C7970682064617461206717
:101DB0006574206661696C6564000000900902200A
:101DC000524C45206465636F6465206661696C658B
:101DD000640000002DE9FC5F06004FF00000DFF812
:101DE00088A10C4699461546009001900AD0202DF6
:101DF0006FD35E4831680768B9420AD12146B847B7
:101E0000BDE8FC9FBAF80010032000EB014058A188
:101E100040E0304603F050F80246DFF864B100209D
:101E200000EB40035BF83370AF420DD10BEBC30105
:101E30000979914208D100EB40010BEBC100083059
:101E40000FC884E80F008CE0401C6428E8DBD6F85B
:101E500018805FEA080017D0D8F80070EFB1D8F802
:101E6000040008B3B9F1FF3F05D07869A84232D326
:101E70003869A8422FD829463046FFF7BDFDB9F191
:101E8000FF3F18D038B318E0BAF80010032000EB79
:101E900001403CA122F03EFA1BE0BAF800100320FA
:101EA00000EB01403EA1F5E7BAF80010032000EB7B
:101EB000014040A1EEE70028A2D04068B9F1FF3F01
:101EC00000D040B1D8F80430062269469847062869
:101ED00008D0002094E725484B462A46066821464C
:101EE000B0478DE7002020606060A060E060397935
:101EF000A07B61F30300A0739DF80010A1809DF802
:101F0000051000F00F00C900B1FBF0F0E0809DF873
:101F1000020020819DF90300608130899DF9041041
:101F2000401A9DF80210401A7189401A401CA08185
:101F3000304602F0C1FF062813D0294B196801EB87
:101F400041060BEBC60738714BF8365035CC0837D5
:101F500087E835006420491CB1FBF0F200FB121049
:101F6000186001204CE7000084C90120E40400202F
:101F700070466F6E74206973204E554C4C00000003
:101F80001C0E0220705F666F6E745F757365725F02
:101F900064617461206973204E554C4C0000000050
:101FA000705F666F6E745F696E666F206973204E36
:101FB000554C4C00705F666F6E745F757365725F31
:101FC000646174612D3E705F6765745F6461746104
:101FD0005F66756E63206973204E554C4C0000009F
:101FE000D804002070B5044600256FF02F0608E0E5
:101FF0002068411C2160007805EB850106EB41015A
:1020000045182068007800F021F80028F0D1284613
:1020100070BD000010B5044605484068FFF7E6FDB6
:102020000449401E51F830102060A1F1140010BD89
:10203000840100207CFC012003480168814201D01A
:102040000120704700207047940100203038092893
:1020500001D801207047002070470000F0B597B00C
:1020600005465022174902A8FEF728FA16A4294669
:10207000204622F037FF07460146224614A026F0EC
:1020800091F8384622F04AFF1BA026F08BF802AEEA
:102090002C6811E0207AA17BA4F10C03132802D84C
:1020A00056F8200000E01598CDE9000108223946D5
:1020B0001AA026F077F82468AC42EBD117B00020C4
:1020C000F0BD0000E8FC020064657669636500000D
:1020D000252D2A2E732020202020202020207479D6
:1020E000706520202020202020202072656620633B
:1020F0006F756E740A000000202D2D2D2D2D2D2DB5
:102100002D2D2D2D2D2D2D2D2D2D2D2D2D202D2D0C
:102110002D2D2D2D2D2D2D2D0A000000252D2A2EA3
:102120002A7320252D32307320252D38640A0000B3
:102130002DE9FC4106461FA40146204622F0D2FEAE
:102140008046014622461EA026F02CF8404622F08A
:10215000E5FE22A026F026F8356825E0A96805F1FD
:102160000800A5F10C04814212D0074626F061F860
:10217000A18CCDE900102346082241461DA026F07F
:1021800011F8384629F08CFB1F4826F00BF80AE0BE
:1021900026F04FF8A18CCDE90010234608224146D5
:1021A0001AA025F0FFFF2D68B542D7D10020BDE869
:1021B000FC8100006D736771756575650000000036
:1021C000252D2A2E7320656E7472792073757370B5
:1021D000656E64207468726561640A00202D2D2D7F
:1021E0002D20202D2D2D2D2D2D2D2D2D2D2D2D2D39
:1021F0002D0A0000252D2A2E2A7320253034642034
:102200002025643A0000000090230000252D2A2E8E
:102210002A732025303464202025640A0000000041
:102220002DE9FF41054617A40146204622F05AFE3B
:1022300080460146224615A025F0B4FF404622F014
:102240006DFE1BA025F0AEFF08262C6813E000BF32
:10225000A4F10C0704F1080025F0EBFFF97F3A6ABE
:1022600003900096CDE901213B460822414618A083
:1022700025F098FF2468AC42EAD104B00020BDE804
:10228000F08100006D75746578000000252D2A2E00
:10229000732020206F776E65722020686F6C642039
:1022A00073757370656E64207468726561640A008A
:1022B000202D2D2D2D2D2D2D2D202D2D2D2D202D75
:1022C0002D2D2D2D2D2D2D2D2D2D2D2D2D0A0000BB
:1022D000252D2A2E2A7320252D382E2A73202530CD
:1022E00034642025640A00002DE9FC4106461FA441
:1022F0000146204622F0F6FD8046014622461EA0F9
:1023000025F050FF404622F009FE22A025F04AFFAA
:10231000356825E0A96805F10800A5F10C048142A3
:1023200012D0074625F085FFA18BCDE9001023468A
:10233000082241461DA025F035FF384629F0B0FAA5
:1023400013A025F02FFF0AE025F073FFA18BCDE944
:10235000001023460822414618A025F023FF2D68CF
:10236000B542D7D10020BDE8FC81000073656D61E6
:1023700070686F7265000000252D2A2E732076206C
:10238000202073757370656E642074687265616473
:102390000A000000202D2D2D202D2D2D2D2D2D2D31
:1023A0002D2D2D2D2D2D2D0A00000000252D2A2E3E
:1023B0002A7320253033642025643A00252D2A2EE7
:1023C0002A7320253033642025640A002DE9FC415E
:1023D000064629A40146204622F084FD0746014610
:1023E0002246274825F0DEFE384622F097FD25A03C
:1023F00025F0D8FE356839E095F82900A5F10C04E0
:1024000000902346082239462EA025F0CBFE94F8F2
:10241000340000F00F00012805D0022805D030B1AB
:10242000042806D008E02AA004E02CA002E02EA098
:1024300000E030A025F0B6FEA06A014600E0401C96
:102440000278232AFBD0E26A401A101A6423584308
:10245000B0FBF2F3D4F830C0206CCDE9000CE06999
:10246000081A811826A025F09DFE2D68B542C3D11B
:102470000020BDE8FC8100007468726561640000A2
:1024800030C10300202D2D2D20202D2D2D2D2D2D63
:102490002D202D2D2D2D2D2D2D2D2D2D202D2D2D86
:1024A0002D2D2D2D2D2D2D20202D2D2D2D2D2D2083
:1024B000202D2D2D2D2D2D2D2D2D2D202D2D2D0A89
:1024C00000000000252D2A2E2A73202533642000C9
:1024D000207265616479202000000000207375730C
:1024E00070656E640000000020696E697420202011
:1024F0000000000020636C6F736520200000000066
:1025000020307825303878203078253038782020F1
:1025100020202530326425252020203078253038B1
:102520007820253033640A002DE9FC41054619A4C2
:102530000146204622F0D6FC06460146224617A058
:1025400025F030FE304622F0E9FC1EA025F02AFEE0
:102550002C6814E0A4F10C031F460822D7E90901F6
:10256000CDE90001314620A025F01CFE787AC00795
:1025700001D023A000E025A025F014FE2468AC4281
:10258000E8D128F0A1F9014624A025F00BFE002097
:10259000BDE8FC8174696D6572000000252D2A2E4E
:1025A000732020706572696F6469632020207469EC
:1025B0006D656F757420202020202020666C616777
:1025C0000A000000202D2D2D2D2D2D2D2D2D2D20FF
:1025D0002D2D2D2D2D2D2D2D2D2D202D2D2D2D2D38
:1025E0002D2D2D2D2D2D0A00252D2A2E2A7320303C
:1025F0007825303878203078253038782000000071
:102600006163746976617465640A0000646561637E
:10261000746976617465640A000000006375727203
:10262000656E74207469636B3A3078253038780AA7
:102630000000000010B54421074800F0D3FB002241
:102640001E2106481FF06AFE054CA06002F078F9D2
:102650000020207010BD0000AC170220F5490000DA
:102660006805002070B5B1F90030B2F90040A3420E
:1026700000DC23460380B1F90250B2F90240A542C2
:1026800000DD2C464480B1F90460B2F90450AE423A
:1026900000DA35468580B1F90610B2F9062091427C
:1026A00000DB1146C1800120AB4201DC8C4200DD21
:1026B000002070BDF8B50D460446B0F90000B1F930
:1026C00000101646884247DBB4F90210B5F9022023
:1026D000914241DBB4F90410B5F9042091423BDC8E
:1026E000B4F90610B5F90620914235DC96B3ADF881
:1026F00000006088ADF8020032466946284600F0C6
:1027000099F8002827D0A088ADF800006088ADF8BF
:10271000020032466946284600F08CF800281AD09C
:102720002088ADF80000E088ADF802003246694626
:10273000284600F07FF800280DD0A088ADF80000F2
:10274000E088ADF8020032466946284600F072F88B
:10275000002800D00120F8BD0020F8BDB0F900200D
:10276000B1F904309A4213DCB0F90420B1F9003019
:102770009A420DDBB0F90220B1F906309A4207DC2B
:10278000B0F90600B1F90210884201DB0120704760
:1027900000207047F8B50D460446B0F90400B1F9C1
:1027A00000101646884243DBB4F90600B5F9021062
:1027B00088423DDBB4F90000B5F90410884237DCEB
:1027C000B4F90210B5F90620914231DC76B3ADF8C8
:1027D00000006088ADF8020032466946284600F0E5
:1027E00029F818BBA088ADF800006088ADF8020099
:1027F00032466946284600F01DF8B8B92088ADF881
:102800000000E088ADF8020032466946284600F034
:1028100011F858B9A088ADF80000E088ADF80200C2
:1028200032466946284600F005F808B10020F8BD98
:102830000120F8BD2DE9FC4114460E46B1F90020F7
:10284000B0F9001005468A423ADBB5F9040082422D
:1028500036DCB6F90270B5F90220974230DBB5F9E3
:1028600006309F422CDC002C75DD401A9A1A401C61
:10287000521C00B212B200EBD07002EBD2724010C8
:102880005210904200DB1046844200DD0446ADF851
:102890000010288800222044ADF804006888ADF8B4
:1028A0000200688831462044ADF806006846FFF70C
:1028B000C1FF40B1BDF804002044ADF804003FE082
:1028C0000020BDE8FC81E8880022001BADF8020072
:1028D000E888ADF8060031466846FFF7ABFF28B13F
:1028E000BDF804002044ADF8040011E0A8880022DF
:1028F000001BADF80000A888ADF80400314668461A
:10290000FFF798FF50B1BDF80000001BADF80000C4
:10291000BDF80200001BADF8020016E06888ADF8B3
:102920000200688800222044ADF80600314668465F
:10293000FFF780FF70B1BDF80000001BADF800008C
:10294000BDF806002044ADF80600314668461DF08B
:10295000FBF9B6E7FFE70120B3E710B5B1F9004096
:10296000B2F900309C4200DA23460380B1F90240FC
:10297000B2F902309C4200DA23464380B1F90440A8
:10298000B2F904309C4200DD23468380B1F9061081
:10299000B2F90620914200DC1146C18010BD000052
:1029A000F8B507461FF056FC0025264C0646009554
:1029B00037B1F868606038461FF07EFD606802E05D
:1029C00012F05CFC606000691DF0BAF86068406954
:1029D00008B11DF0B5F86068C0691DF0B1F8606815
:1029E000006A1DF0ADF86068016941B31DF01EFA80
:1029F00023F05CFB6068B0F85011C1B14FF48071F6
:102A0000303018F017FE6068202100F5987018F03B
:102A100011FE6068A0F8505130461FF015FC009080
:102A200060680068436A13B122680099984718F0FB
:102A30009BFC00F035F8BDE8F84000F005B8A0F8C0
:102A40005051F8BD4805002070B50A4D002400BF64
:102A5000C4EBC40655F8260008B118F0F9FC05EBE4
:102A600086001C2118F0E6FD641CE4B2042CEFD3B0
:102A700070BD000088180220084949680AE04A68C9
:102A8000824202D00A68824203D10A7E42F00102E9
:102A90000A7649690029F2D1704700001C05002020
:102AA000704700000421014800F09CB9A0170220E3
:102AB0002021014800F096B9B81702202DE9FF4106
:102AC0000446DDE90A671D004FF0000002D1B6F5AB
:102AD000807F2BD0039001900290ADF80C100090F5
:102AE000ADF80410ADF80A20ADF80E203B46324692
:102AF000294668461DF088F83B463246294601A81B
:102B00001DF082F83B463246294602A81DF07CF8AB
:102B10003B463246294603A81DF076F8BDF9000071
:102B2000BDF90430984209DA054608E02080491EC4
:102B30006080A180521EE280BDE8FF811D46BDF984
:102B40000820BDF90C108A4201DA164600E00E4654
:102B5000B54203DA984206DB184604E08A4201DAFD
:102B6000104600E00846801E2080BDF90030BDF907
:102B70000420934201DD1D4600E01546BDF9080022
:102B8000BDF90C10884201DD064600E00E46B54254
:102B900005DD934201DD194604E0114602E088425A
:102BA00000DD0146891CA180BDF90230BDF9062077
:102BB000934201DA1D4600E01546BDF90A00BDF951
:102BC0000E10884201DA064600E00E46B54205DAEC
:102BD000934201DA194604E0114602E0884200DA25
:102BE0000146891E6180BDF90230BDF9062093427D
:102BF00001DD1D4600E01546BDF90A00BDF90E10C5
:102C0000884201DD064600E00E46B54205DD9342EE
:102C100001DD194604E0114602E0884200DD01466C
:102C2000891CE18088E700002DE9F04115460E4639
:102C30000746114C1FF00EFB80462B4632463946A4
:102C4000204616F061FD20B10020A062E06950B17D
:102C500010E02C21204618F0EDFC4FF00040A0625F
:102C60000020BDE8F08140461FF0EEFAE06108B9AF
:102C70000120E0612046F4E7DC17022010B51421A2
:102C8000074800F0AFF816F005FD40B105490160B6
:102C900005494160054981600549C16010BDFEE7F5
:102CA000C4170220BD90010039940100B5950100C0
:102CB000899001007FB50E46040003D112F0DEFAC0
:102CC00004002CD012F04EFB002828D094F82800E5
:102CD000400724D4002506B3ADF80050ADF80250EB
:102CE000204612F0E3FA401EADF80400204612F030
:102CF00023FB401EADF806006A46314602A8FFF7E6
:102D0000B1FC00280BD02068017C890708D5DDE9DB
:102D10000001C4E90C01012029E0A4F850517FBD55
:102D200082690AB102A9904700260AE004EBC601B5
:102D3000002202A83031FFF7BDFC0028EFD1761C3D
:102D4000B6B2B4F85001B042F0D880B2202804D214
:102D500004EBC00002A9303004E0A4F8505104F1A3
:102D6000300069460FF022FFB4F85001401CA4F86F
:102D7000500160680028D2D01FF0AAFB7FBD70B55B
:102D8000054600F012F804460CE02146284600F003
:102D90001EF806462146284600F071F8204618F035
:102DA00057FB3446002CF0D170BD002800D040689D
:102DB000704700B503460022FFF7F7FF03E018460F
:102DC000521C00F004F80100F9D1104600BD006863
:102DD000091D40587047006840587047002800D0CF
:102DE0008068704700224260C91C21F003018260A4
:102DF0000160704770B504460068083018F0ACFAFE
:102E0000050013D001460022204620F02DFD294662
:102E10002046626820F022FD616819B12A462046EA
:102E200020F022FD6560A06800B9A560284670BD4D
:102E300070B504460068083018F08EFA050013D00B
:102E400001460022204620F009FD29462046A268BE
:102E500020F00AFDA16819B12A46204620F0FEFCA8
:102E6000A560606800B96560284670BD28B14168FA
:102E700009B9806808B1002070470120704770B51B
:102E800004000DD0FFF791FF00228842204608D1B0
:102E9000FFF79DFF6060011E01D000221EE0A260CE
:102EA00070BDFFF79BFF8842206808440AD1016883
:102EB000A16029B12046BDE87040002220F0CEBCC0
:102EC000626070BD05682046FFF781FF0646024636
:102ED0002946204620F0C2FC2A4631462046BDE85D
:102EE000704020F0C1BC10B50446006882680AB189
:102EF0002146904720680068002801D02060F5E74F
:102F000010BD8068002801D0B0F9160070478068B5
:102F1000002801D0807E8009704770B516460546AE
:102F20000C4651EA06001AD0284619F0D3F8A868D2
:102F300001233246018A21440182A868418A314432
:102F40004182214628461BF0FBFB00220B2128462C
:102F500015F04EFA012803D128461BF04AFB012048
:102F600070BD77B581B00E46050017D061221AF00A
:102F70009DFE040012D0206880B1284631466222AE
:102F80001AF094FE10F0FF0208D02368204603993F
:102F900098470090BDF80000ADF80C00039804B00D
:102FA00070BD00002DE9F047074692B0408C1A9E94
:102FB00040F00400788490463A8499468A463289E3
:102FC00038461AF073FE0546A7F82090328951461C
:102FD00038461AF06BFE0446788CA54220F00400B7
:102FE000788403D12904B1EB044F68D0A7F820807E
:102FF0003289514638461AF059FE05468046A7F8F0
:103000002090514638460DF0FBF9318900682A4678
:103010001EF07AF830890B2823D147F6FF794D4509
:1030200001D04C451DD138461AF0FBFF00EBD070A3
:103030004510384619F0FDFE00EBD0704010C84531
:1030400006D1691C431C994200DA00E01946884603
:103050004C4506D1691C421C914201DA6C1C00E00F
:1030600014461948FFF7C6FE05002BD02F60C5E9AE
:1030700003843089A8806846C5F808A00FF0AEF830
:103080001248FF21CDE900501148029011480390E9
:1030900000200890CDE9090130880B9070889DF8D8
:1030A000421040420C90F0680790002060F300014D
:1030B0008DF842103069069068460FF003F912B09F
:1030C000BDE8F087FEE70000D0170220E5E302002C
:1030D000A1E50200FDE4020014210148FFF782BED1
:1030E000D01702202DE9F84F002590468946064664
:1030F0002C460427E5E000BFF16807EBC400085840
:1031000082017AD480B230EA090211D05FF0000265
:1031100030EA08000ED0002082426ED051F834A070
:103120006A46102150461DF055FD002871D103E07C
:103130000122EDE70120EFE76A46112150461DF01C
:1031400049FD002865D16A46122150461DF042FD16
:1031500000285ED16A46132150461DF03BFD002831
:1031600057D16A46152150461DF034FD002850D134
:103170006A46142150461DF02DFDE8BB6A460A211F
:1031800050461DF027FDB8BB6A466A2150461DF027
:1031900021FD88BB6A466B2150461DF01BFD58BBC4
:1031A0006A46012150461DF015FD28BB6A460421E0
:1031B00050461DF00FFDF8B96A46022150461DF039
:1031C00009FDC8B96A46032150461DF003FD98B9B0
:1031D0006A46052150461DF0FDFC68B96A46062185
:1031E00050461DF0F7FC38B96A46322150461DF0B2
:1031F000F1FC08B96A4601E00BE061E06D21504640
:103200001DF0E8FC28B96A466C2150461DF0E2FC2E
:1032100010B10320BDE8F88F6A46682150461DF0C2
:10322000D9FCE8BB6A46692150461DF0D3FCB8BB07
:103230006A466D2150461DF0CDFC88BB6A466C2164
:1032400050461DF0C7FC58BB6A46372150461DF05A
:10325000C1FC28BB6A46382150461DF0BBFCF8B9BA
:103260006A46352150461DF0B5FCC8B96A46402172
:1032700050461DF0AFFC98B96A46452150461DF0F6
:10328000A9FC68B96A46412150461DF0A3FC38B933
:103290006A46422150461DF09DFC08B96A4600E08E
:1032A0000AE0432150461DF095FC28B96A464921A1
:1032B00050461DF08FFC08B1022501E005B901253B
:1032C000641C708CC0F3C500A0423FF615AF2846C1
:1032D000A0E7000001484068704700004805002052
:1032E0007047C0F30410072800D90720704700007A
:1032F000A0F57F41FF3905D0002804D0702803D203
:1033000008490AE01F2070470749703880B20968F1
:1033100029B1064A5268904201D2085C70470020E9
:103320007047000020B10300940500209C05002098
:1033300010B518210348FFF755FD03490120087017
:1033400010BD00007C170220A40500202DE9F041EB
:1033500090460C46050015D0FDF7FAF80A4F0646D0
:103360002146BA68284690470446BA68281941465B
:1033700090470146701A03E06218AA5C2A55641C43
:10338000A042F9D2BDE8F081B80500202DE9F04156
:10339000094D90460E466A681C46074619469047F6
:1033A000306020B120686A68384400219047C8F82E
:1033B0000000BDE8F0810000B80500202DE9F04FC5
:1033C00087B08A46DDE910581F469346044600211F
:1033D00005B129805CB12078002809D0BAF1000F2E
:1033E00005D0002618F0060F15D0002004E00020BC
:1033F00007B0BDE8F08F401C215C0A2904D00D29DC
:1034000002D00029F7D100E0401C002DF0D04FF091
:10341000FF312980ECE75FEA887001D541F6FF773C
:10342000894608468DF81410049127E00498CDF8D9
:10343000189068B34FF0000C05AA06ABCDF80CC08D
:10344000CDF80080CDE9013220443B465A46514632
:103450001FF080F806997A1A314417B20EB288B17B
:1034600004990144049120780A280BD00D2809D032
:10347000605C0A280FD00D280DD00846205C08B1EA
:10348000002FD3DC049848B105B12E800498AFE733
:103490004FF0010CD0E7481C0490F3E7064A04A95A
:1034A000204652689047002DF0D001460022504639
:1034B00015F043F806B2E8E7B80500202DE9F04121
:1034C0001746884606001ED0002F1CD0FDF740F896
:1034D00004463846FDF73CF8050014D00B4A2C444E
:1034E0004146926830469047411903E0621BB25C46
:1034F0003255641EA142F9D930442A463946BDE806
:10350000F04118F059B8BDE8F0810000B80500207E
:1035100000230278232902D0012A0DD00FE02AB11E
:103520000021012A04D0022A04D008E0012101E090
:10353000017004E0017001E0202902D00123184647
:1035400070470221F6E72DE9F0410E46804602461B
:103550000021334608461FF03BFA04460027401C72
:1035600017F0FAFE050008D02F5533464246611C7D
:103570001FF02EFA2846BDE8F081FEE72DE9F04F56
:1035800089B017468B4606004FF0000405D140F283
:103590001712254925A023F07FF93FB94FF48C720B
:1035A000214923A023F078F900E0641C305D202835
:1035B00003D0092801D05C45F7D34FF0FF3984B31D
:1035C0001D4804F1060ADFF87480056811E0062240
:1035D0001BA12868FCF7E7FF50B92868224631464E
:1035E000801DFCF7E0FF18B9296811F80A0028B11E
:1035F0000C35D8F800008542E9D313E0AC6884B1FB
:1036000020216846FCF781FF6A46594630461FF084
:10361000EFFF30B16946A0473860002009B0BDE82F
:10362000F08FFFE74846F9E73CFE0200636D640057
:10363000726574700000000034020020380200201F
:103640005F5F636D645F00002DE9F0411E46154623
:103650000C46069FFCF762FEDFF850E004EB4402E4
:1036600071463EF9223001EB8201A34211D1D1F81B
:1036700004C0B4450DD1B1F802C0AC4509D1D1F8B0
:1036800008C0BC4505D100BFFCF74CFE0020BDE8DA
:10369000F0815B1C03D0FCF745FE0720F7E72EF80E
:1036A00022404E604D808F60EEE700007C020020DB
:1036B00010B50C46FCF732FE0A4904EB440331F91D
:1036C0002320521C09D04FF0FF3221F8232001EBB8
:1036D000830100224A604A808A60FCF723FE0020B2
:1036E00010BD00007C0200202DE9FC5FDFF8A8B0CF
:1036F0000C464FF040094FF0E02A4FF00048012AF5
:1037000001D0EAB318E0FCF709FE0746234904EBB1
:10371000440031F92020521C0BD001EB800080784E
:10372000C0F38100012811D002280CD003280FD14A
:1037300005E03846FCF7F6FD0620BDE8FC9F204674
:1037400020F0CEFB10B103252E4601E00225012614
:103750000021CDE90015204633460A4620F025FB1E
:103760000F49A02081F80004CAF800914FF4BE7000
:1037700020F0F6FBCBF804833846FCF7D3FD08E0D5
:10378000FFE74FF4BE7020F0EBFBCBF80883CAF8DC
:1037900080910020D1E70000006000407C02002002
:1037A00006E000E01CB50846042A0BD2DFE802F070
:1037B000020B0D0F002100910B46012201911146D1
:1037C00020F0F3FA1CBD002102E0032100E00121FA
:1037D000BDE81C4020F002BB084620F081BB38B594
:1037E00001246846009132B120F06CFB00998C40B6
:1037F000C0F8084538BD20F065FB00998C40C0F842
:103800000C4538BD2DE9FC5F9B460CAB8A468146D2
:10381000DDE9116093E81210DDE90F575FEA807867
:103820004FF030031AD45EB15FEAC07808D000F0E0
:103830000C0858EA0C0803D0761E01E00B55641CF6
:10384000BC4204D2202CF9D301E00B55641C5FEA82
:10385000C07803D0B44201D2202CF6D35FEAC0680E
:1038600025D55FEA40580AD44CB1BC4201D0B442DD
:1038700005D1641E03D0102D03D1641E04E0102D69
:1038800002D0022D0AD00EE0850603D4202C1ED2D1
:10389000782506E0202C1AD2582502E0202C16D2DA
:1038A00062250D55641C202C11D20B55641C202C54
:1038B0000DD2BCF1000F01D02D2306E0430701D546
:1038C0002B2302E0030702D520230B55641CCDE90E
:1038D00000BAC846154681468B46AA46800714D1D1
:1038E000274607E02A46DDE900316D1C2020C4464A
:1038F000E0477F1CB742F5D307E02A466D1C641EE3
:10390000DDE900311BF80400C047002CF5D15FEA67
:10391000897006D409E02A46DDE900316D1C2020BB
:10392000C047A5EB0A00B042F5D32846BDE8FC9F8E
:103930002DE9F04F8FB099468B46DDE91818DDE987
:103940001C63DDE91A4792468646002209B923F036
:103950001003580507AD00D5C9B1B1FBF4F004FB65
:103960001010C0B20A2801D2303009E05FEA836C3F
:1039700002D54FF0410C01E04FF0610C60440A3871
:10398000B1FBF4F1A854521C09B1202AE5D3CDF8BB
:103990000880CDE90563CDE90052CDE903474B46E8
:1039A000524659467046FFF72DFF0FB0BDE8F08F25
:1039B0002DE9FF4F8FB01CACDDE9239594E8030897
:1039C00020AC94E8C004002450EA010201D125F0A3
:1039D00010056A050DF11C0802D550EA010217D046
:1039E00032463B46FCF734FDD2B20A2A01D23032CD
:1039F00006E0AB0601D5412300E061231A440A3AF0
:103A000008F80420641C50EA010201D0202CE7D3FE
:103A1000CDE90084CDF808B0CDE90595CDE9036A7C
:103A20000FAF97E80F00FFF7EDFE13B0BDE8F08F82
:103A30009A4200D2885470477047000070B514460F
:103A4000050004D13722084908A022F025FF3CB127
:103A5000286C62882188036828469847002070BD3A
:103A60004FF0FF3070BD0000FCFB020070696E205B
:103A7000213D2052545F4E554C4C000070B51E46FF
:103A80001546040004D11822084909A022F004FFB9
:103A90000DB1042E01D0002070BD206C29888268F1
:103AA000204690476880304670BD0000E7FB02006A
:103AB00070696E20213D2052545F4E554C4C0000E1
:103AC00070B51E461546040004D12722084909A0F6
:103AD00022F0E2FE0DB1042E01D0002070BD206C5A
:103AE0006A882988436820469847304670BD0000A0
:103AF000F1FB020070696E20213D2052545F4E554B
:103B00004C4C000010B5040004D15322114912A0FE
:103B100022F0C2FEA06A0178232906D1E169814220
:103B200003D9E26A02448A420AD221460FA024F055
:103B300039FB0EF0A3FAFCF7F1FB0028FDD110BD14
:103B400020308142FBD82146BDE810400EA024F071
:103B500029BB0000D6F802007468726561642021F8
:103B60003D2052545F4E554C4C0000007468726505
:103B700061643A257320737461636B206F7665729C
:103B8000666C6F770A0000007761726E696E673A43
:103B900020257320737461636B20697320636C6FDD
:103BA000736520746F20656E64206F662073746186
:103BB000636B20616464726573732E0A00000000F9
:103BC0002DE9FC411F460446DDE90831DDE90A65BF
:103BD000143040600060C4E90827C4E90A310A468D
:103BE0002321184624F0A4FCD4E90A014218D4E9A0
:103BF0000801154B121F24F077F9E061082E04D359
:103C00009522124912A022F047FE84F8366084F80B
:103C100035600020C4E90E052564206384F8340073
:103C200020676067009023460190124A194604F10C
:103C3000440026F07DFF1048816809B1204688477E
:103C40000020BDE8FC81000055A2020024F902001A
:103C50007072696F72697479203C2052545F5448C5
:103C6000524541445F5052494F524954595F4D416A
:103C700058000000B1A702009C01002010B5029C72
:103C800024F001044472C0E907120021C0E909319F
:103C900014304060006010BDF0E905124A60D0E9C0
:103CA0000012116040600060704700002DE9F0478D
:103CB00017468846050002D0B8F1000F05D140F242
:103CC000BD12374937A022F0E7FDFCF727FB8146FC
:103CD0003F49A86C084202D1EC6C3CB10CE028468C
:103CE000EE6C23F085FC04465EB330E040F2C71270
:103CF0002B4938A022F0D0FD2068012817D00120E0
:103D00002060286C006928B94FF4E672244936A077
:103D100022F0C2FD286C01233A4604694146284638
:103D2000A0474846FCF7FEFA3846BDE8F0876FF03A
:103D300006044846FCF7F6FA204625F08DFF0020E1
:103D4000F3E74FF4EE72164931A022F0A5FDA74229
:103D500000D23C46F088A96C0219C1F38F218A4237
:103D600004D231682246014440460EE00A1A316806
:103D70000144404624F09CFBF088A96C0219C1F371
:103D80008F21521A4144081A316824F091FB2146D0
:103D9000284623F057FC4846FCF7C4FA2046C4E7FF
:103DA00052FB02002873657269616C20213D20522C
:103DB000545F4E554C4C292026262028646174619E
:103DC00020213D2052545F4E554C4C2900000000EC
:103DD00000FCFF0372785F646D6120213D20525426
:103DE0005F4E554C4C00000073657269616C2D3E4E
:103DF0006F70732D3E646D615F7472616E736D6977
:103E00007420213D2052545F4E554C4C0000000060
:103E100072785F6669666F20213D2052545F4E556F
:103E20004C4C00002DE9F04715460F46060005D121
:103E30004FF484721D491E4822F02EFDF46CA846F2
:103E40004FF0000A64BB4FF486721849194822F0FB
:103E500023FD25E0FCF762FA0146E088A288904243
:103E600001D1A26882B1226812F80090401C80B291
:103E7000E080B26CC2F38F22904201D3A4F806A076
:103E8000A068012804D005E00846FCF74BFA09E0D9
:103E9000C4F808A00846FCF745FA07F8019B6D1E18
:103EA000002DD7D1A8EB0500BDE8F087DDFA0200B0
:103EB000249B0200307602004168002901D080680E
:103EC0000847704770B58AB00E46054620224D4916
:103ED00002A8FCF7F3FA4C4C2DB94A494E220C3992
:103EE0004AA022F0D9FC2EB946494F220C394CA0E9
:103EF00022F0D2FCE86B00B1044600252069C0F82E
:103F000000553168B1F5165F42D0494808903079C4
:103F100010F0C00F3ED00E208DF81D0007208DF848
:103F200024008DF81C5004950595A0690390E06964
:103F30000290009068461FF0B7FF009A012191405F
:103F4000C0F8081502981FF05CFF02981FF077FF79
:103F50000022039800952B46114601951FF00CFF97
:103F600020690899C0F824159DF81D009DF81C10C3
:103F700022690843C2F86C05DDE902122069C0F825
:103F80001425C0F80C159DF81C00012805D00BE085
:103F90002848BBE78DF81D50C0E7DDE90412206911
:103FA000C0F80825C0F810154FF48E71206920F074
:103FB00073FB4FF48471206920F06EFB4FF4A27103
:103FC000206920F069FB4FF49271206920F064FBB6
:103FD00020691949C0F80413206920F0A7FB9DF857
:103FE0002410FDF729FB206920F0A0FBFDF717FB4B
:103FF00020690421C0F800150348001F04600AB0BE
:10400000002070BD08FF020048020020736572693D
:10401000616C20213D2052545F4E554C4C000000F5
:1040200063666720213D2052545F4E554C4C000082
:1040300000E0D70100502700040202002DE9F04102
:10404000474D174688462C68060004D198224549FA
:1040500045A022F021FCF06B00B104464046B8F1C7
:10406000210F5AD00ADC454E4FF0010510281FD011
:1040700011280BD0B8F1200F05D139E0222855D0F6
:10408000B8F1230F4CD00120BDE8F08120694560D4
:104090002069C0F80863206920F048FB00F01F0188
:1040A0008D404009800000F1E020C0F8805154E0CC
:1040B0004FF48471206920F0EFFA4FF4A271206967
:1040C00020F0EAFA4FF49271206920F0E5FA2069B5
:1040D000C0F80463206920F029FB0721FDF7ACFA42
:1040E000206920F023FBFDF79AFA2069056034E08F
:1040F000012F02D0022F07D02FE021684FF4165075
:1041000048641F49206905E021684FF4E1304864A4
:104110001C492069C0F824151FE02868A0421CD063
:10412000206800F14401FFF7CDFE16E02069002170
:10413000C0F8001521694FF0FF30C1F81405C1F82F
:104140000C05A0691FF07BFEA0691FF05AFEE06914
:104150001FF075FEE0691FF054FE002094E7000098
:104160004402002028FF020073657269616C2021FF
:104170003D2052545F4E554C4C000000040202009A
:104180000050270000E0D70170B506000E484FF040
:10419000FF35046804D1FF220C490DA022F07CFBFE
:1041A000F06B00B104464FF484763146206920F06C
:1041B0006EFA38B13146206920F06EFA2069D0F8E5
:1041C0001805C5B2284670BD440200203EFF02001B
:1041D00073657269616C20213D2052545F4E554CCD
:1041E0004C00000070B506000F480D46046804D16D
:1041F000E9220E490EA022F04FFBF06B00B10446FD
:104200004FF48E763146206920F046FA206901216C
:1042100081602069C0F81C553146206920F037FACA
:104220000028F9D0012070BD4402002033FF0200B5
:1042300073657269616C20213D2052545F4E554C6C
:104240004C0000002DE9FF4F89B005460A98002474
:104250009246002800D1FE4D8FE1252804D0224649
:10426000641C53460A990BE2491C4FF000080846AB
:104270000C9101782B2919D004DC202919D023298D
:1042800004D119E02D290ED0302909D00026C8B25A
:10429000FDF7DCFEB0B10CA8FDF7A4FE06461FE05A
:1042A00048F001010AE048F0020107E048F004018B
:1042B00004E048F0080101E048F01001401C884685
:1042C0000C90D6E70C9908782A2809D1169840C88E
:1042D0001690002E02DA48F002087642491C0C9132
:1042E0000C984FF0000B01782E2919D1401C0C902E
:1042F00048F480680078FDF7A9FE20B10CA8FDF70E
:1043000071FE83460CE00C9A10782A2808D1169882
:1043100002C81690002900DC0021521C8B460C922A
:104320000C9801786C290AD004DC68290FD06A291E
:1043300019D128E0742929D07A2914D126E0401C0B
:104340000C90017848F480786C291CD00BE0401C5C
:104350000C90017848F08008682904D148F04001A9
:10436000401C88460C9002460078692822D015DC53
:1043700062281FD00DDC252871D050281AD058286B
:104380007FF46DAF16E048F40071E9E748F48071FE
:10439000E6E7632878D06428F2D10BE0732874D064
:1043A00004DC6F2806D07028EAD103E0752801D01C
:1043B0007828E5D178280DD058280BD070280BD05C
:1043C000502809D06F2816D0622816D00A2128F06C
:1043D000100016E0102107E05078102148F488788A
:1043E000562804D1521C0C921078582807D0107807
:1043F000502804D006E0082109E0022107E048F037
:10440000200080461078692803D0642801D028F065
:104410000C085FEA485001D528F001081078692897
:104420001ED064281CD0562864D05FEA885072D50C
:10443000169804ABC01D002283E806080292CDE95D
:10444000076820F007005346F0E80212CDE9001299
:104450001690224628460A99FFF7AAFA89E00AE14F
:104460005FEA885024D5169804AFC01D20F00703DA
:10447000F3E802021693002387E80A08CDE90768EB
:10448000002A03DA012102E080E0A6E000210023F7
:10449000029119461B1A914101DA114603E00021ED
:1044A000404261EB020153462246CDE90001D1E7CB
:1044B0005FEAC85004D5169804C80FE0524215E0D0
:1044C0005FEA486003D5169810F8042B06E05FEA0F
:1044D0000860F0D5169830F8042B12B21690CDE98A
:1044E000021BCDE90468D00F002AE7DDCDE90020EA
:1044F00053461EE01698AAEB040202C816904868BC
:10450000006800900A980B6801192846FFF79AFE88
:1045100004442FE0FFE75FEAC8500CD5CDE9021B49
:10452000CDE9046816980021534604C8CDE900215E
:104530001690224619E05FEA486003D5169810F8F5
:10454000042B08E05FEA0860169803D530F8042BC6
:1045500092B200E004C816900020CDE90020CDE919
:10456000021BCDE904685346224628460A99FFF704
:10457000DFF904460C98401C0C900C990878002830
:104580007FF46BAE54457DD222467DE001275FEA81
:10459000887006D509E02246641C534620200A99FB
:1045A000A84738467F1CB042F5D316992246641CB2
:1045B00011F8040B169153460A99A8475FEA8870D0
:1045C00006D4D7E72246641C534620200A99A84700
:1045D00038467F1CB042F5D3CCE7169850F8049BC0
:1045E00016904B46BBF1000001D0014601E04FF0B0
:1045F000FF31484600E0401C02780AB1491EFAD259
:10460000C71A5FEA485003D558465F4500D30746AE
:104610005FEA887006D512E02246641C53462020CB
:104620000A99A84738467F1CB042F5D307E000BF7F
:10463000224609F10109641C53460A99A84799F8D2
:10464000000040B15FEA4851F2D5BBF1010B01E037
:10465000393A0000ECD25FEA887006D48AE7224635
:10466000641C534620200A99A84738467F1CB04254
:10467000F5D37FE706E02246641C534625200A99BD
:10468000A84777E7AAF10102534600200A99A847F4
:104690000DB02046BDE8F08F2DE9F0410F46012115
:1046A0000025044641862E460BE01B49FBF757FFC9
:1046B00010B16D1CADB202E0608E401C6086761CAD
:1046C000B6B257F8260010B101780029EDD1208E3E
:1046D000A8421ED0A06A002610B116F0B9FEA6624C
:1046E000E06A10B116F0B4FEE662E80016F034FE9F
:1046F000A06238B1680016F02FFEE06218B1A16A1E
:1047000011B102E0FEE7FEE70025690016F092FF16
:104710002586BDE8F08100007C3501002DE9F84FC9
:104720008146407A0F4600F00700022819D0104653
:104730008046974200DD3A46164603202A4C2B4A13
:1047400000EB460020F00305A06811681035411AFF
:10475000636805EB010C9C4505D2416821F00041DE
:1047600024E00846E4E79D4219D892464FF0FF3B0B
:1047700048196168884210D9002269461C48CDF862
:1047800000B00CF0F7FC002269461A480CF0F2FC6D
:10479000A168DAF80000091AEAE7A068DDE7284610
:1047A00016F0DAFDC0B1416841F0004188EA6702C5
:1047B000416089EA02010160416801F04041491C01
:1047C00031F0804141608681A0F80E8005D500F16E
:1047D00010018160BDE8F88FFEE7A16801F11002C9
:1047E00029448260A160F5E7F806002090050020CA
:1047F000BDDD0000E511010070B586B000224F4C10
:104800008DF808208DF80C208DF81020E2888A425F
:1048100001D0FF22A270E18090F83C20142302F026
:1048200003024FF4B475012A24D0022A68D0A57877
:10483000AA4211D010F8265F05EB051505EB4505DA
:10484000B5FBF3F52570407800EB001000EB40005D
:10485000B0FBF3F06070A27004AA03A8CDE90002D7
:1048600001EB41004FF6FF7101EA400002AB6278B4
:1048700021781BE0A678B24210D0868C06EB460663
:104880007602B6FBF5F5A58090F8270000EB001046
:1048900000EB4000B0FBF3F06070A27004AA03A824
:1048A000CDE90002C9B202AB627844E008F086FFAD
:1048B0009DF80C00BDF8003044099DF8082064F311
:1048C0000203ADF80030D308BDF800209DF81010A9
:1048D00063F3C702ADF80020CA08BDF8001062F308
:1048E0000C21ADF800108108BDF8000061F34F30D5
:1048F000ADF8000080B20090BDF8000006B070BDB9
:10490000A678B24210D0868C06EB46067602B6FB3D
:10491000F5F5A58090F8260000EB001000EB4000B4
:10492000B0FBF3F02070A27004AA03A8CDE9000246
:10493000CAB2217802ABA088B8E700008C0600203C
:1049400010B5084C012020700748FEF72EFA002809
:10495000A06803D0BDE810401DF0BABDBDE810400E
:104960001DF0AABD68050020AC17022010B5044652
:1049700090F84200A16B820709D4B4F840204AB1F4
:10498000A2F57F43FF3B1BD0521EA4F84020B4F891
:104990004020AAB909B1820712D521461448FEF772
:1049A0006EFAFFF7CDFFE16809B12046884721691B
:1049B00009B1204688472046BDE8104016F048BDA2
:1049C000E26B52422263002911D0820702D4626B4B
:1049D000524222634210521C62F3410084F84200AA
:1049E000A26A206A2262A062E06AE162A06310BD4E
:1049F000AC17022070B5304D68681DF025FC0646E6
:104A0000687880F00100687047E00020287094F812
:104A100042006978C0F380028A4242D061F382008A
:104A200084F84200216B8A19030719D4002917DC86
:104A3000002A15DBC00709D1616939B120468847D2
:104A4000216A01442162A16A0844A062A16809B1F7
:104A50002046884794F8420040F0080084F842005D
:104A6000206B8019206316D4E16A884200DD21633F
:104A7000E169204688470146606A884204D0616245
:104A800062680AB120689047D4E90B01814202DBD9
:104A90002046FFF76BFF287818B10848FEF785F924
:104AA00003E021460548FEF792F90400ADD11DF060
:104AB000D1FB686070BD000068050020AC170220C3
:104AC00072B61FF0CDFC00BF1FF018FB0028FBD111
:104AD000104C0121208801EB00400FA11FF01AFCAF
:104AE00010480068C00700D000BE2088022101EBFA
:104AF00000400DA11FF00EFCBFF34F8F0948E438B2
:104B000001680D4A01F4E06111430160BFF34F8F6A
:104B100000BFFDE784C90120466174616C206572A5
:104B2000726F7200F0ED00E053797374656D20725E
:104B300065736574000000000400FA050EB50021DD
:104B40000091CDE901106A4644F20100FFF7B8FF79
:104B50000EBD00007FB500249020CDE900043B4A43
:104B60000C233BA1A2F1340023F006FD08B1FFF7AE
:104B7000E5FF6FF07F40CDE9000434480023364A5A
:104B800036A1B43025F0D4FF37A025F08FFB10B14B
:104B9000374825F0F9FA34A025F088FB14244FF4A7
:104BA000806598B9324904207831CDE90015CDE906
:104BB000020400232F4A2CA12D4825F065FC10B1DA
:104BC000FFF7BCFF02E02A4825F032FD23A025F0C4
:104BD0006DFB10B1264825F0D7FA20A025F066FB22
:104BE000A0B90320CDE902042349CDE900152248EC
:104BF0000023224A19A1783825F046FC10B1FFF7AE
:104C00009DFF03E01C48783825F012FD184800236A
:104C10001A461BA1203824F0DDFB08B1FFF78EFFF8
:104C200013487038006A68B911484C38C0690028C8
:104C3000FDD00F48002214A1703823F083FE08B184
:104C4000FFF77CFF04B0002070BD0000CCC901203C
:104C50006576746D71740000E9D500006576747432
:104C6000696D6572000000006576747461736B0095
:104C7000CCCA0120914C0000BCCF0120154F000090
:104C800065767473656D00006D757465780000005D
:104C90000EB50B4C4FF0FF36002533460C2269460B
:104CA000084823F0ADFC0028F7D10298A0600198D5
:104CB0006060029900988847A5606560EDE7000094
:104CC0000000002098C901203EB505460C4607A00B
:104CD00025F0ECFA002807D00C2269460548029519
:104CE000009423F0ABFDC0B23EBD00006576747445
:104CF00061736B0098C901202DE9F84307460E4601
:104D000003EB4300C0EBC3104FF4FA7101EBC0009A
:104D10004900B0FBF1F500249046012D05D831463D
:104D20003846FFF7D1FFBDE8F8831E4823F0FAFEAE
:104D300008B1FFF703FF1C4850F8241019B1641C98
:104D4000402CF9DB12E0402C10DA40F8247000EB24
:104D50008407C7F80061C7F8008325F0B5FD134943
:104D60000968401A00902844C7F800020D4823F053
:104D700013FE08B1FFF7E2FE402C03DB0120FFF732
:104D8000DDFED0E70748243025F0BEFF05486A461F
:104D90000021243025F0F2FD0248503024F03EFB83
:104DA000C1E700005CCA0120BCD301200000002044
:104DB00038B5054600244FF47A71184823F0B2FE46
:104DC00008B1FFF7BBFE002115480A4650F8213014
:104DD000AB4202D140F821200124491C4029F5DBD7
:104DE0000E4823F0D9FD08B1FFF7A8FE9CB125F0CD
:104DF0006BFD0C490968401A00900848243025F0E2
:104E000083FF06486A460021243025F0B7FD034899
:104E1000503024F003FB204638BD00005CCA01205E
:104E2000BCD301200000002010B5124B124A1349D8
:104E3000002008F06FFC114904460E4B104A1C314B
:104E4000012008F067FC0D4904440A4B0D4A383133
:104E5000022008F05FFC09490444064B0A4A543119
:104E6000032008F057FCE04201D0002010BD0120D3
:104E700010BD0000D7F80000A4670300140502204D
:104E8000045C030080450300BC4203000148C06885
:104E900070470000C004002001480069704700000E
:104EA000C0040020062803D2024951F820007047B0
:104EB00000207047C00400200146064A002000BFC1
:104EC00052F820308B4204D0401CC0B20628F7D3E1
:104ED00006207047C0040020014880687047000029
:104EE000C0040020302801D306A07047084A131FD1
:104EF0001B7852F82320526810580278002AF4D107
:104F0000084670476E6F206B65796E616D650000B5
:104F1000240700201CB53A4C4FF0FF394FF47A7A41
:104F20004FF000086FF000474946364824F0B6FAC3
:104F30003448CDE90078464601AA01212C3825F0F5
:104F40001DFD30485146503823F0ECFD08B1FFF705
:104F5000F5FD002554F82500D8B104EB8501D1F802
:104F600000220198824205D9D1F80022101AC1F816
:104F7000000201E0C1F80062D1F8000248B954F81B
:104F8000250044F82560D1F80023D1F80011FFF77F
:104F90009BFE6D1C402DDDDB5FF0000554F8250005
:104FA00078B104EB8506D6F8000210B90020FFF7AF
:104FB000C5FDD6F800020099884202D2D6F8000258
:104FC00000906D1C402DE9DB0E48503823F0E4FCC6
:104FD00008B1FFF7B3FD0098B842A5D00028A3DDC3
:104FE00008486A4600212C3825F0C8FC05482C38B2
:104FF00025F0CEFD25F068FC0349086094E7000029
:10500000BCD30120ACCA012000000020401A20F0CF
:105010007F40704738B504467AB1626059B10620C6
:10502000009000232246064906A025F0FFFC2060E0
:1050300018B1002038BD0420F2E7072038BD000079
:10504000B93E000061707074696D65720000000007
:1050500038B5044601EB4100C0EBC1104FF4FA71C2
:1050600001EBC0004900B0FBF1F00090012811DB1A
:10507000206878B1407AC00701D0002038BDA26016
:105080006A460021206825F079FC206825F080FD23
:105090000028F3D0072038BD10B528B1006818B13A
:1050A00025F032FE002010BD072010BD00F002B830
:1050B00000F008B872B602480168491C01607047E8
:1050C0009400002003490868401E086000D162B6C1
:1050D000704700009400002070B5044640680D46FB
:1050E00008B1FFF7F9FF2268002A04D029462046BC
:1050F000BDE87040104770BD89B20DF0BCBC89B2EC
:105100000DF0F5BC2DE9FF4F99B09846DDE926B1C9
:105110002D9816468A464FF00009042811D005281C
:1051200011D0062812D0142870D10127022500249E
:1051300018FB06F00E901A98401E0D90701E0690F7
:1051400051E10027F2E701270325F0E701270225B7
:10515000FEF7C0F80068D0F83890E8E72898604378
:105160000BEB2022299860430AEB202110124FEA12
:10517000212E7DD41A9B98427ADABEF1000F77DB9C
:10518000B64575DAD2B2CBB2802A05DAC2F17F0217
:105190004FF0FF31520003E001215200A2F580726E
:1051A0000992802B05DAC3F17F034FF0FF325B00D9
:1051B00003E001225B00A3F580730A930EFB080C49
:1051C000199B0CFB053307934318119372D4DDF838
:1051D00034C063456EDC1EEB02036BD4DDF818C0EF
:1051E000634567DCDDF81CC011FB05C1CDE915C1C5
:1051F00012FB08F101FB05C10C91D7B32D990529CC
:1052000005D014290BD0062955D066E0EFE015989B
:10521000807807900C9881781698807810E0199A19
:105220000E990EFB08FC02EB41010A180EFB081157
:105230001CF802000790119803FB08F3085C995CC6
:10524000079A91420AD00A9A11FB02F20A99C1F513
:105250008073079911FB0321C1F30721079A90423C
:105260000DD0099A10FB02F20998C0F5807301E095
:105270002FE035E0079810FB0320C0F30720084417
:105280002C994008085527D015980178407801EBF3
:105290000020ADF80C000C980178407801EB00205C
:1052A000ADF8100016980178407801EB0020ADF8B9
:1052B000080023E04CE0159801881FFA89F081422C
:1052C00007D00C990988814203D016990988814238
:1052D00003D12C990020085583E0FF210846CEE732
:1052E00015980088ADF80C0016980088ADF80800F5
:1052F0000888ADF810002C98FF210155BDF80C006E
:10530000BDF81010884209D1BDF80810884205D1B7
:105310002B98BDF80C1000EB440017E00A98C2B2BD
:10532000DDE903100FF0A3FB04900998C2B2DDE998
:1053300002010FF09CFB7F22029004990FF097FB73
:1053400000902B98BDF8001000EB4400018048E06D
:10535000079B93F800C05B780CEB0323DDF8ACC02F
:105360009BB22CF81430DDF8B4C0BCF1050F06D0A8
:10537000BCF1060F06D0BCF1140F09D10AE0079B5F
:105380009B780FE01FFA89FC634501D1002309E0F7
:10539000FF2307E0199B0EFB083C0E9B00EB430329
:1053A0001CF8033008B9002905DBDDF834C060457E
:1053B00003D1002901DD09980AE0BEF1000F01D1F7
:1053C000002A04DB06998E4508D1002A06DD0A98DA
:1053D000C0F1FF0010FB03F0010A00E000212C984F
:1053E0000155641C24B22A988442FFF6B7AE1DB062
:1053F000BDE8F08F10B5818F92B00446A9B1684620
:105400000CF0ECFE0B480121CDE90040A08F0B9081
:1054100000200890CDE9090107480790074803904C
:1054200068460CF04FFF12B010BD12B0BDE810403E
:1054300020F0E6BA795A02009B2201007B5A020052
:1054400070B51FF021FA08B1FFF778FB4FF4FA7539
:10545000064C02E0052024F02DFE207810B96D1EC8
:10546000ADB2F7D20020207070BD000028000020EF
:1054700000B585B0142209496846FBF71FF80022E1
:10548000074968461FF00AFA08B1FFF757FB01F019
:105490001FF904490020087005B000BD28F2020081
:1054A000195B0200280000202DE9F04792460C46C7
:1054B0000646DFF8548022E0FF2C01D8204601E0A8
:1054C0004FF4807085B25246294630461FF054FA98
:1054D000B0F1000901D0FFF731FB4FF4FA7702E099
:1054E000052024F0E7FD98F8000010B97F1EBFB238
:1054F000F6D2002188F80010AA442E44641B002C28
:10550000DAD14846BDE8F087280000202DE9F047B1
:1055100090460C460546DFF8589023E008F0FF005F
:10552000C0F58070844200D2204686B242462146B1
:1055300028461FF039FAB0F1000A01D0FFF7FEFA51
:105540004FF4FA7702E0052024F0B4FD99F800004A
:1055500010B97F1EBFB2F6D2002189F80010B04406
:105560003544A41B002CD9D15046BDE8F08700007B
:105570002800002038B5044614F020FB054614F03E
:1055800052FB0028204605D0218FE18619F031F822
:10559000012038BD12F0F4FC002820461ED012F085
:1055A000C4FB218FE08E81420CD02087E08E0090DA
:1055B0006A461C21204612F01BFF0128E9D1204633
:1055C00019F017F8284614F03AFB0428E0D12046D9
:1055D00017F02AFC002113F0C7FCD9E712F02CFDCC
:1055E000D6E770B512F000FF054617F063FC0446DD
:1055F00028460EF07DF801462046BDE870400122A5
:105600001CF054B92DE9F0470546861C90460F461C
:105610004FF001090020FFF749FD1B4C206838605E
:10562000D4E90001401AA16804F50777081A0EE0D2
:10563000012138461EF070F90CF03AFD014638465B
:105640001EF06AF9D4E90001401AA168081A401C4A
:105650008642EDD8B8F1000F03D0052065F389101C
:1056600002E0062065F39F50A2682168114004EB18
:105670008101C8602068304420600020FFF718FDD9
:105680004846BDE8F0870000B0F4012030B48268DD
:105690000468531C8360A154D0E901128A4202D3EA
:1056A00030BC1EF024BA30BC70470000034803C869
:1056B000814201D10120704700207047B0F40120E1
:1056C00010B51BA022F06EFD1C4C21781CA022F00E
:1056D00069FD2078C00702D01FA022F063FD20786A
:1056E000800702D51FA022F05DFD2078400702D57B
:1056F0001FA022F057FD2078000702D520A022F03D
:1057000051FD2078C00602D520A022F04BFD207864
:10571000000607D509480F300168BDE810401DA0FC
:1057200022F040BDBDE810401EA022F03BBD0000AD
:10573000627573206661756C743A0A0029ED00E0A9
:105740005343425F434653525F424653523A307886
:10575000253032582000000049425553455252200E
:10576000000000005052454349534552522000006A
:10577000494D5052454349534552522000000000C4
:10578000554E53544B4552522000000053544B4544
:10579000525220005343422D3E424641523A253058
:1057A00038580A000A0000002DE9F04F0D4687B076
:1057B0000446002117F06CFA60B32946204600F039
:1057C00061FA2946204600F06FF80021204618F0C3
:1057D00077F905900021204618F014FA0490002172
:1057E000204618F05CF8012800D0002080460021F7
:1057F000204618F04BFB07460021204618F0BEF863
:1058000042F2D17906464F450BD1608C400508D451
:10581000012707E007B02846BDE8F04F1C2115F02E
:1058200009BF0027204617F0B1FADFF878A08346B9
:1058300020460021BAF8042018F038FAD5F810C034
:10584000AB682968CDF800C0CDF80C80CDE90131F6
:10585000C2B239465846059B0AF044FE28834E459D
:1058600004D1608C800501D4012600E0002620468A
:1058700017F072FA074620460021BAF8082018F0FF
:1058800015FAC2B2686900246B68E9688DE81B00EC
:1058900031463846049B0AF025FE688307B0BDE810
:1058A000F08F0000000600202DE9F34F81B00C4678
:1058B00001980AF071F90646019817F067FA8246D6
:1058C000304601F063F82061400015F063FD206070
:1058D0002069400015F05EFD002541F69A79A06030
:1058E0003AE036F91510DFF82081494533D1002719
:1058F000DFF818B11FE03946019817F0C9F9594689
:10590000009018F0DEFBA8B900980AF057F90128BA
:1059100010D100980AF048F9A8420BD1009818F06D
:1059200080FB4146404501DA084602E0009818F045
:1059300078FB80467F1C019817F0BCF9B842DAD892
:10594000B8F1000F03DBA16821F8158003E0A1681E
:10595000002021F815006D1C2069A842C1D800253F
:105960002F46284641F69B784B4615E036F9101035
:10597000414504DB0D44A5F5F8559B3D0BE09942EC
:1059800004D1A16831F81010394403E0A26822F86C
:10599000101039440FB2401C21698142E6D8002121
:1059A000019818F08DF82169C1F1010200FB02A0F5
:1059B000C01B00B2002800DA002000224FF0FF33A5
:1059C0001146C44611E000BF36F9117067450BDB84
:1059D000A7F5F8579B3F3AB210FB02F3B3FBF5F380
:1059E000A76827F811300B46491C27698F42EBD86E
:1059F000002B07DBA91A4143B1FBF5F1401AA1685E
:105A000021F81300BDE8FE8F01E0FFFF0100060052
:105A10002DE9F14F00221146009819F079FD00217F
:105A2000009817F069FF04460021009818F0F0F87C
:105A300020440FFA80F90021009817F0EDFF204470
:105A40000FFA80F8009817F0CBFE00EB090101EB8C
:105A50000800DFF898A006B25446009817F02AF91B
:105A6000074600252AE0009821498068006850F820
:105A70002500834618F025FBF8B9584618F012FEA9
:105A800040BB0021584617F0CFFE18B3012821D0A3
:105A900002281FD003281DD00021584618F008FA0C
:105AA00058B9BBF81A10BBF81600081A401C00B20F
:105AB0004844A04200DB044624B26D1CBD42D2D350
:105AC000544504D004EB080000B2B04200DC30467C
:105AD000BDE8F88F0098BBF91A10B0F91600081A43
