:020000040000FA
:10000000682C0220F902000001030000FF03000039
:1000100005030000070300000903000000000000C2
:100020000000000000000000000000000B030000C2
:100030000D030000000000004B030000110300004E
:10004000650F0000130300004D14000013030000AF
:100050001303000013030000150700001303000042
:100060001303000013030000130300001303000038
:100070001303000013030000130300001303000028
:1000800013030000491000001303000013030000D5
:100090001303000013030000130300001303000008
:1000A00013030000130300001303000013030000F8
:1000B0001303000013030000000000000000000014
:1000C00013030000130300001303000013030000D8
:1000D00013030000130300001303000013030000C8
:1000E00013030000BD0F0000130300000000000018
:1000F000000000001303000000000000C111000018
:1001000000000000000000000000000000000000EF
:1001100000000000000000000000000000000000DF
:1001200000000000000000000000000000000000CF
:1001300000000000000000000000000000000000BF
:1001400000000000000000000000000000000000AF
:10015000000000000000000000000000000000009F
:10016000000000000000000000000000000000008F
:10017000000000000000000000000000000000007F
:10018000000000000000000000000000000000006F
:10019000000000000000000000000000000000005F
:1001A000000000000000000000000000000000004F
:1001B000000000000000000000000000000000003F
:1001C000000000000000000000000000000000002F
:1001D000000000000000000000000000000000001F
:1001E000000000000000000000000000000000000F
:1001F00000000000000000000000000000000000FF
:10020000DFF80CD000F0E4F90048004705070000D3
:10021000682C022030B4044654E8000F0D4644E830
:100220000053002BF8D1156030BC704730B4044641
:1002300054E8000F40EA010544E80053002BF7D1D1
:10024000156030BC704730B4044654E8000F00EA33
:10025000010544E80053002BF7D1156030BC70470E
:1002600030B4044654E8000F80EA010544E8005326
:10027000002BF7D1156030BC704730B4044654E809
:10028000000F00EB010544E80053002BF7D1156087
:1002900030BC704730B4044654E8000FA0EB0105B1
:1002A00044E80053002BF7D1156030BC704770B4A0
:1002B00004464FF0000054E8006F0D68AE4207BFDF
:1002C00044E80023012044E800630E60002B1CBFBB
:1002D0000020F0E770BC704730B4044654E8000FCB
:1002E00088422CBF451A054644E80053002BF5D13F
:1002F000156030BC7047000006488047064800473C
:10030000FEE7FEE7FEE7FEE7FEE7FEE7FEE7FEE7C5
:10031000FEE7FEE77112000001020000EFF310801B
:1003200072B6704780F310887047434A1368012BF8
:1003300004D04FF001031360404A1060404A11603E
:1003400040484FF0805101607047EFF3108272B661
:100350003948016851B34FF0000101603748016826
:1003600091B1EFF309811EF0100F08BF21ED108B42
:1003700021E9F00F4FF000041EF0100F08BF012418
:1003800041F8044D006801602D490968096808C9F1
:10039000B1E8F00F002B18BFB1EC108B81F3098886
:1003A0004EF0100E002B18BF2EF0100E82F31088A6
:1003B0004EF0040E704722490860EFF3148222F0D9
:1003C000040282F314881D494FF0000008601A49A6
:1003D0004FF0010008601C484FF47F01D0F8002066
:1003E00041EA0201016017484FF08051016017484F
:1003F0000068006880F3088861B662B670471EF036
:10040000040F0CBFEFF30880EFF3098020E9F00F31
:1004100040F804ED40F804ED1EF0040F0CBF80F32B
:10042000088880F3098800B508F0B8F85DF804EB97
:100430004EF0040E70470000C8000020C0000020ED
:10044000C400002004ED00E020ED00E008ED00E035
:1004500000487047C067010040EA01039B0703D0D2
:1004600009E008C9121F08C0042AFAD203E011F8F3
:10047000013B00F8013B521EF9D27047D2B201E0B5
:1004800000F8012B491EFBD270470022F6E710B599
:1004900013460A4604461946FFF7F0FF204610BDF2
:1004A000421E12F8013F002BFBD111F8013B02F86C
:1004B000013B002BF9D1704710B5044604E00B78DE
:1004C00000F8013B03B1491C521EF8D2204610BD72
:1004D000421C10F8011B0029FBD1801A704710B58F
:1004E000002200E0521C835C8C5CA34201D1002BF3
:1004F000F8D1D8B2E1B2401A10BD30B504460020A0
:10050000034600E05B1C934203D2E05CCD5C401BE1
:10051000F8D030BD034611F8012B00F8012B002A5A
:10052000F9D11846704730B505460020034600E073
:100530005B1C934205D2EC5CC85C201A01D1002CF4
:10054000F6D130BD70B5064601F07AF8046805466C
:100550000A220021304600F002F82C6070BD2DE91F
:10056000F04791460F4680460446002614F8015B8A
:100570002DB1FFF76DFF0068405DC007F6D12B2D50
:1005800002D02D2D18D0641E4A463946204600F070
:1005900031F827B13968A14201D1C7F8008071054F
:1005A0004FF002040BD54042002803DD01F048F86B
:1005B0000460A007BDE8F08746F48066E4E7002801
:1005C000F8DA01F03DF804606FF00040F2E7000057
:1005D000064C074D06E0E06840F0010394E8070090
:1005E00098471034AC42F6D3FFF70EFEFC7A0100B8
:1005F0001C7B01002DE9F05F82460078002715463C
:100600008B460AF10104B946302801D09DB113E0B0
:1006100014F8010B0127782803D0582801D045B1E0
:100620000AE00DB1102D07D10027102514F8010B99
:1006300002E0082500E00A250026B0460EE005FB92
:10064000080005FB06F1012701EB10461FFA80F8B0
:10065000B6F5803F00D3B94614F8010B294600F0E7
:1006600018F80028EBDABBF1000F05D00FB1641EBB
:1006700000E05446CBF80040B9F1000F06D000F07E
:10068000DFFF02210160C81EBDE8F09F48EA064076
:10069000FAE73A2800D2303820F02002412A01D36C
:1006A000A2F13700884201D34FF0FF30704770B598
:1006B0008C1810F8015B15F0070301D110F8013B0D
:1006C0002A1106D110F8012B03E010F8016B01F894
:1006D000016B5B1EF9D12B0705D40023521E0DD4EC
:1006E00001F8013BFAE710F8013BCB1A921C03E03A
:1006F00013F8015B01F8015B521EF9D5A142D8D372
:10070000002070BD10B5FFF709FE09F037FF00208B
:1007100010BD00002DE9F04F8FB000245B4900941C
:10072000019409684FF4BE7001297DD105F07EFD6A
:100730006A460221002005F063FD0020544B0A9414
:10074000421EEB4608A90B9441F82020401C8A4623
:100750000228F9D3994600254FEA050606EB460123
:1007600009EB810839F9214098F80270601C5AD0D1
:1007700008A9204605F0ECFA60B3D8F80400C7F3E6
:1007800081075FEA000802D0032F02D00DE0032F9B
:1007900049D10DF1280CE00804F007011CF80030E5
:1007A00001228A4013430CF8003005A8059405F097
:1007B000F9FC059900EB8100D0F800076946C0F309
:1007C00001400590204605F0C3FA0028059802D0A4
:1007D000022802D027E0032825D1032F1CD10228AC
:1007E0004DD002200D90059405A805F0DBFC05997D
:1007F00000EB8101D1F8002722F44032C1F8002734
:10080000059900EB8101D1F800270D9842EA0040DC
:10081000C1F800076D1CEDB2B8F1000F03D044EA37
:1008200087104146884700E026E0761CF6B2302E5D
:1008300094D3002D20D003AA0221002005F0E0FC73
:1008400000205A460DF10C0152F8204051F820309A
:10085000A34216D000200AAC4FEA0A0351F82060E8
:1008600042F8206054F8206043F82060401C0228C1
:10087000F4D3002D7FF46FAF0FB0BDE8F08F0320ED
:10088000B0E7401C0228DFD3F6E700007C6100409F
:10089000700200200549086810F8082D10F8043F80
:1008A0001A4400F8042C086070470000140200206D
:1008B0000349086870E902231A4404C008607047BD
:1008C000140200200549086830F8082D30F8043F6C
:1008D0001A4420F8042C086070470000140200201D
:1008E0000549086810F8082D10F8043F1A4000F870
:1008F000042C0860704700001402002003490868B7
:1009000070E902231A4004C00860704714020020F6
:100910000549086830F8082D30F8043F1A4020F8DF
:10092000042C08607047000014020020034800688F
:1009300010F8041DC9430170704700001402002024
:100940000348006850F8041DC94301607047000067
:10095000140200200348006830F8041DC9430180D8
:10096000704700001402002070B57A4A9CB07A4D9E
:1009700011680CAB11F8010B11602A680021121FDD
:100980002A6008E0461A03EB860652F8044946F846
:10099000044C491C2A608142F4D3146811287DD28A
:1009A000DFE800F0090B0E12171C232C36404D5CBB
:1009B0006C7D90A5BB00002000E00C98A047C3E030
:1009C000DDE90C01A047BFE00CAB93E80700A047AE
:1009D000BAE00CAE96E80F00A047B5E010980CAE58
:1009E000009096E80F00A047AEE0DDE910010CAEE4
:1009F000CDE9000196E80F00A047A5E010AB0CAED2
:100A000093E807008DE8070096E80F00A0479BE0F9
:100A100010AE96E80F008DE80F000CAE96E80F00C0
:100A2000A04791E011AE96E80F0001AE86E80F00F6
:100A300010980CAE009096E80F00A04784E012AE2C
:100A400096E80F0002AE86E80F00DDE910010CAE5B
:100A5000CDE9000196E80F00A04775E013AE96E8D7
:100A60000F0003AE86E80F0010AB0CAE93E8070052
:100A70008DE8070096E80F00A04765E014AE96E801
:100A80000F0004AE86E80F0010AE96E80F008DE868
:100A90000F000CAE96E80F00A04755E053E015AEEE
:100AA00096E80F0005AE86E80F0011AE96E80F003D
:100AB00001AE86E80F0010980CAE009096E80F008B
:100AC000A04741E016AE96E80F0006AE86E80F009C
:100AD00012AE96E80F0002AE86E80F00DDE91001C5
:100AE0000CAECDE9000196E80F00A0472CE017AE50
:100AF00096E80F0007AE86E80F0013AE96E80F00E9
:100B000003AE86E80F0010AB0CAE93E807008DE84B
:100B1000070096E80F00A04716E018AE96E80F0011
:100B200008AE86E80F0014AE96E80F0004AE86E823
:100B30000F0010AE96E80F008DE80F000CAE96E89F
:100B40000F00A04700E00020296801C129601CB007
:100B500070BD00001802002014020020054908683A
:100B600010F8082D10F8043FB2FBF3F200F8042C43
:100B700008607047140200200449086870E90223E5
:100B800092FBF3F204C008607047000014020020DA
:100B90000549086830F9082D30F9043F92FBF3F25B
:100BA00020F8042C08607047140200200548064A0B
:100BB00001680B78116801F8043B11600168491C59
:100BC00001607047180200201402002006480168E6
:100BD000CA780B6862F31F63044A116808C1116088
:100BE0000168091D016070471802002014020020EE
:100BF00007480168CA78096862F31F61054A0B78E3
:100C0000116801F8043B11600168091D016070471B
:100C100018020020140200200348006850F8041D48
:100C2000097801707047000014020020074801682D
:100C3000CA78096862F31F61054A0B68116808C128
:100C400011600168091D0160704700001802002052
:100C5000140200200348006850F8041D0968016070
:100C6000704700001402002007480168CA7809682C
:100C700062F31F61054A0B88116821F8043B11607B
:100C80000168091D0160704718020020140200204D
:100C90000348006850F8041D09880180704700006F
:100CA000140200200548064A01680B88116821F8E3
:100CB000043B11600168891C016070471802002024
:100CC00014020020074910B5086810F8082D10F824
:100CD000043FB2FBF3F403FB142200F8042C086079
:100CE00010BD000014020020054910B5086870E925
:100CF000022392FBF3F403FB142204C0086010BD2E
:100D000014020020074910B5086830F9082D30F9A1
:100D1000043F92FBF3F403FB142220F8042C086038
:100D200010BD0000140200200549086810F8082DC5
:100D300010F8043F12FB03F200F8042C086070471F
:100D4000140200200349086870E902235A4304C0D2
:100D500008607047140200200549086830F8082D23
:100D600030F8043F12FB03F220F8042C08607047AF
:100D700014020020704700000549086810F8082D8B
:100D800010F8043F1A4300F8042C08607047000074
:100D9000140200200349086870E902231A4304C0C2
:100DA00008607047140200200549086830F8082DD3
:100DB00030F8043F1A4320F8042C08607047000004
:100DC0001402002002480168091F016070470000FA
:100DD000140200200549086810F8082D10F8043F97
:100DE0009A4000F8042C08607047000014020020AC
:100DF0000549086850F8082D10F8043F9A4040F85B
:100E0000042C08607047000014020020054908689F
:100E100030F8082D10F8043F9A4020F8042C0860A0
:100E200070470000140200200549086810F8082DDA
:100E300010F8043FDA4000F8042C08607047000006
:100E4000140200200549086850F8082D10F8043FE6
:100E50001A4140F8042C086070470000140200207A
:100E60000549086830F9082D10F8043F1A4120F8A8
:100E7000042C086070470000140200200548016837
:100E800011F8042C51F8081C0A700168091F016050
:100E9000704700001402002004480168083906C9A0
:100EA0000A600168091F01607047000014020020F9
:100EB0000548016831F8042C51F8081C0A800168C3
:100EC000091F0160704700001402002005490868EE
:100ED00010F8082D10F8043FD21A00F8042C08600E
:100EE00070470000140200200349086870E90223DB
:100EF000D21A04C00860704714020020054908682F
:100F000030F8082D30F8043FD21A20F8042C08607D
:100F100070470000140200200549086810F8082DE9
:100F200010F8043F5A4000F8042C08607047000095
:100F3000140200200349086870E902235A4004C0E3
:100F400008607047140200200549086830F8082D31
:100F500030F8043F5A4020F8042C08607047000025
:100F60001402002070B54FF48076304604F0F8FE8D
:100F7000114CB50560B1304604F0F9FE0120C5F80A
:100F80000803607920B9012060712168002088473A
:100F90004FF48276304604F0E3FE00280AD0304653
:100FA00004F0E5FE0220C5F808032168BDE87040A2
:100FB0000120084770BD0000A000002010B50A4CB9
:100FC0004FF48071204605F0A9FC00280AD007489C
:100FD00000214171C4F8001102688168BDE8104029
:100FE0000020104710BD0000009002408CEE012050
:100FF000F0B50024461822E010F8011B01F07F052F
:1010000067199F4202D94FF0FF30F0BD09064FF03B
:10101000000106D411E007781755641C491CA4B2DE
:1010200089B2A942F7D3401C09E000BF10F8017B48
:101030001755641C491CA4B289B2A942F6D3864252
:10104000DAD82046F0BD000070B5104D4FF4A07105
:10105000284605F068FC07F0CBFCD5F80445A91537
:10106000284605F060FC09F003F8201A20F07F44C0
:1010700005E000BF08F056FF08B108F0FFFF641E4E
:10108000F8D2BDE8704007F0D1BC0000001001406C
:1010900000F024BA2DE9F84304461C48007808B94A
:1010A00000F01CFAFF2000258DF800004FF0FF38FB
:1010B000102C27D21648154E005D8DF80100183609
:1010C000002002F0E1F8307D114F00F003007F1E98
:1010D00002280BD0304600F035FA02280DD33C70C0
:1010E00002226946304600F082FA07E03C70022294
:1010F0006946304600F04EFA00E04546002002F016
:10110000C5F800E045462846BDE8F883BCEE01205E
:10111000A900002070B50B4B0646144618780D4602
:1011200008B900F0DBF9002002F0AEF822462946AB
:10113000304600F009F80446002002F0A7F82046E7
:1011400070BD0000BCEE012070B50E46144900EBE6
:10115000400001EBC0051446E86A183520B10128AB
:101160000FD0022805D113E0284600F0EBF9A04289
:1011700001D2002411E022463146284600F037FA19
:101180000BE0284600F0DEF9A042F4D20446F2E774
:101190003146284600F0FEF90446204670BD0000A6
:1011A000BCEE012070B505460C460846FFF790F9E5
:1011B000024621462846BDE87040FFF7ABBF00005D
:1011C000F8B51448144E04464FF48C7105F0B1FB89
:1011D00000281DD00025C4F81851D4F8180100903B
:1011E00096F820003446FF2808D0A17F31B9E17F6E
:1011F00011B104F08AFF01E004F0F7FF6577257272
:10120000D4E9002101B004F10800BDE8F040104726
:10121000F8BD000000F0024098EE012010B500205B
:1012200004F0C8FD104C2020C4F80805C100204679
:1012300005F079FB0120C4F804034FF482712046C5
:1012400005F071FB0220C4F804030120A0602060B7
:101250000649E02081F800044FF0E0214FF400300F
:10126000C1F8000110BD00000010014011E000E0D5
:1012700030B54FF0805000228300D0F83011C3F811
:101280000C21C3F81021624B1A60624B1B68624C40
:101290002360604B1B1D1B68241D23605D4B0833BE
:1012A0001B68241D23605B4B0C331B68241D2360CB
:1012B000584B10331B68241D2360564B14331B6896
:1012C000241D2360534B18331B68534C2034236078
:1012D000504B1C331B68241D23604E4B20331B686E
:1012E000241D23604B4B24331B68241D2360494B72
:1012F00028331B68241D2360464B2C331B68241D98
:101300002360444B30331B68434C40342360414BD3
:1013100034331B68241D23603E4B38331B68241D67
:1013200023603C4B3C331B68241D2360394B403306
:101330001B68241D23600124082902D1D0F8343110
:1013400013B1082904D006E0354B3449196005E093
:10135000D0F8343113B1082904D006E0314BFB2119
:10136000196005E0D0F8343113B1082908D00EE037
:1013700090F858322C48016863F30301016002E0E1
:10138000D0F834311BB929494FF40070086028485F
:101390000168C90702D06FF00101016025480168AA
:1013A00041F470010160BFF34F8FBFF36F8F4FF0B7
:1013B0001021D1F80002002803DBD1F80402002834
:1013C00022DA1D4B1C601D480468002CFCD012243E
:1013D000C1F800420568002DFCD0C1F80442016844
:1013E0000029FCD01A6001680029FCD0BFF34F8FA0
:1013F00010487C380168124A01F4E0611143016031
:10140000BFF34F8F00BFFDE70F490E48086030BDA6
:10141000380500400404001020C500404881030046
:101420008C56004018F50040E40E00404096024003
:101430000004004088ED00E004E5014000E40140C4
:101440000400FA050090D0032C00002070B5214D57
:101450004FF40071284605F07CFA50B14FF49274B5
:101460002146284605F06AFA18B12146284605F0BB
:101470006AFA0421284605F06CFA174C50B14FF473
:101480008471284605F05AFA20B1206801210068CD
:1014900007F09CF98021284605F05BFA50B14FF423
:1014A0008E71284605F04AFA20B1206802210068B2
:1014B00007F08CF94FF4A271284605F03FFA002896
:1014C00006D0206805210068BDE8704007F07EB9AD
:1014D00070BD0000002000403802002010B5124C02
:1014E00002202061606111A0A06104F17800E06138
:1014F0004FF4007020620020A06260620BA1A16422
:10150000E06204F51E71E1641021A065C4E91410C5
:10151000E06509A1E01DFEF7FDFF08A12046FEF7EA
:10152000F9FF2020A07110BDBCEE01205465726D42
:10153000696E616C000000005254540053454747E7
:10154000455200000269C1688A4203D88068401A87
:10155000104400E0501A401E704700F01F020121A5
:1015600091404009800000F1E020C0F88012C0F8EE
:10157000001170474907090E002806DA00F00F0035
:1015800000F1E02080F8141D704700F1E02080F8A1
:10159000001470472DE9F047C4681746894606468F
:1015A0004FF000083069A04201D9051B02E0B16884
:1015B000201A0D1AB0686D1E001BA84200D80546FF
:1015C000BD4200D33D4670682A4620444946FEF796
:1015D00043FFB0687F1B2C44A844A944A04200D11B
:1015E0000024F460002FDDD14046BDE8F0872DE9EE
:1015F000F04104468846D4E90207C51BE1686068EB
:1016000016460844B54206D94146FEF725FFB819EB
:10161000E060BDE8F0812A464146FEF71DFF761BDB
:1016200008EB050132466068FEF716FFE660F0E75A
:10163000014A024901F0C7B8194C000020050020FA
:1016400000487047240500202DE9F0470D46202969
:101650003FD3A5F10A0045F2DA31244CA5F56046E6
:101660004FF4C85845F2E33788420FD301F022FD0A
:10167000426861688A422ED046452CD2294602E053
:101680001A4862683946BDE8F04710472A46642187
:10169000174803F007FB00B2411CE7D000EB400104
:1016A000134841F2AF1300EB8101486809894218E1
:1016B0009A420ED8104ADFF83C9010444FF48063F1
:1016C0004A46801DFFF794FC401CCFD04846BDE839
:1016D000F0870020FBE701F0CDFC426861688A4298
:1016E000CED029469047BD42CAD0F0E7D4040020AE
:1016F000E4C100000C00022094C600002DE9F05F58
:101700009B4616460D46202A02D20020BDE8F09FD7
:10171000A6F10A0045F2DA31284CA6F560474FF4ED
:10172000C85845F2E3394FF0FF3A88422AD2642183
:10173000234803F0B7FA00B2411C23D0204900EB44
:10174000400001EB800001F5966140680844017893
:101750002980417869808178A98090F90310E98017
:1017600090F9040028810220A8721AE001F082FC9E
:10177000076821688F4216D0534632462946B8473B
:1017800078B910E001F096FCD0F800C021688C45D3
:10179000ECD04745EAD2534632462946E047002876
:1017A000E4D00120B2E724685B464A462946A446B5
:1017B000BDE8F04F01485DF804EB6047D404002019
:1017C000E4C100002DE9F04194468846040059D058
:1017D00020792D4D032630B128882CA106EB00403E
:1017E00004F0FEFE41E0206808B93448206000277C
:1017F00053B10146142260469847142809D028881E
:101800002FA106EB004021E0288832A106EB004022
:101810001CE0206801784A2914D141786F2911D140
:10182000817868290ED1C1786E290BD101795F29A1
:1018300008D141794C2905D18179492902D1C17951
:10184000422906D028882AA106EB004004F0C8FEF1
:1018500015E0816841450BD10127677128882AA1CD
:1018600006EB004004F0BCFE27710120BDE8F081CA
:1018700028882BA106EB004004F0B2FE67712068B7
:1018800000B127600020F1E72C050020466F6E7440
:10189000206C696220696E697469616C65642C20D2
:1018A0004E4F206E65656420746F20696E697420E8
:1018B000616E796D6F72650A000000008404022079
:1018C000526561642064617461206572726F720A8E
:1018D00000000000705F6765745F646174615F663B
:1018E000756E6320696E76616C69646174650A0067
:1018F000496E76616C696461746520666F6E7420F0
:1019000066696C650A000000466F6E74206C69623F
:1019100020696E697420737563636573730A0000D0
:10192000212121466F6E74206C6962207665727386
:10193000696F6E206572726F720A00007CB50E4688
:10194000010029484FF00302CC68008802EB0040F8
:1019500005D024B1A168B14203D1E0687CBD23A1C8
:101960001FE02568E5B16969B14219D32A69B2421D
:1019700016D86368A3B1A98B91B1286AA0B16B791D
:10198000012B2AD0324603F08DF900B2411C28D039
:10199000A660296A00EB400001EB8000E0607CBD9E
:1019A0001BA104F01DFE1CE06879012819D1B01AB2
:1019B00080B2A96900EB400001EB400006226946B5
:1019C000984706280DD11848066000994160BDF877
:1019D00004100181C4E902607CBDB01A80B281426A
:1019E000D6D800207CBD00002C05002070466F6E0C
:1019F0007420726F20705F666F6E745F75736572AE
:101A00005F64617461206973204E554C4C00000086
:101A1000706172616D65746572206572726F72209B
:101A20006F72204E554C4C0000FC012070B52029EF
:101A300029D3A1F1090049F61F32174C45F2E335CD
:101A4000904222D20A46F321144803F02BF900B247
:101A5000411C1AD000EB4001104843F6963300EBCE
:101A600081014868098942189A420CD80D4A0C4EE7
:101A700010444FF480633246801DFFF7B9FA401CD2
:101A800003D0304670BD002070BD29466268BDE8B5
:101A90007040014810470000D4040020101E0100CF
:101AA0000C000220742901002DE9F0411F460C466C
:101AB000202A02D20020BDE8F081A2F1090049F6F7
:101AC0001F31184D45F2E336884201D32D6821E0DD
:101AD000F321154803F0E6F800B2411C18D0124972
:101AE00000EB400001EB800001F6643140680844DF
:101AF00001782180417861808178A18090F903107C
:101B0000E18090F9040020810220A0720120D2E738
:101B10002D683B4632462146AC46BDE8F0410148BF
:101B200060470000D4040020101E0100002807D0E8
:101B30000E4910F0FF0F04D051FA80F00078401CDD
:101B4000704710F47F4F04D0C0F30720085C0930C1
:101B5000704710F47F0F04D0C0F30740085C1130C9
:101B6000704701EB10600078193070475FB30000D8
:101B700002E008C8121F08C1002AFAD17047704756
:101B8000002001E001C1121F002AFBD170470000B4
:101B90002DE9F047314E02004FF003073088D56839
:101BA000884607EB004006D02DB1B8F1200F04D2D3
:101BB0000020BDE8F0872AA14DE0DFF8C890546806
:101BC000D9F804309C4209D0296861B16C6864B1CD
:101BD0004869404502D30869404508D94146BDE8F7
:101BE000F0472848184728A135E02CA133E04146AA
:101BF0001046FFF7A3FE60B1048943684CB14FF46F
:101C00008068A41F44450BD930882FA107EB004002
:101C100021E04146D9F80420BDE8F04719481047B3
:101C20006D6822462E49981DA847A04204D03088EE
:101C30002CA107EB00400EE0304AA1B24346144607
:101C40002748FFF7D5F9401C01D02046B1E730887E
:101C50002BA107EB004004F0C3FCA9E72C050020F2
:101C600070466F6E74206F7220705F666F6E745F67
:101C7000757365725F64617461206973204E554CA1
:101C80004C000000D4040020705F666F6E745F69C2
:101C90006E666F206973204E554C4C00705F666F06
:101CA0006E745F757365725F646174612D3E705F01
:101CB0006765745F646174615F66756E63206973E4
:101CC000204E554C4C000000676C7970685F646171
:101CD00074615F73697A6520746F6F206269670051
:101CE0000CFC0120676C7970682064617461206766
:101CF0006574206661696C65640000000C00022058
:101D0000524C45206465636F6465206661696C654B
:101D1000640000002DE9FC5F5FEA00094FF000005D
:101D2000DFF868A10C4698461546009001900CD04B
:101D3000202D6ED35648D9F800100668B1420BD159
:101D400021465348B047BDE8FC9FBAF80010032075
:101D500000EB01404FA13EE0484601F09BF9DFF85F
:101D600044B1002101EB81035BF82360AE4210D146
:101D70000BEB8302127982420BD101EB81010BEB59
:101D8000810050F8061F2160416861608068A06092
:101D90007AE0491C6429E5DBD9F80C70AFB13E68E4
:101DA000E6B1786808B3B8F1FF3F05D07069A84282
:101DB00031D33069A8422ED829464846FFF7BEFDE8
:101DC000B8F1FF3F18D030B318E0BAF80010032084
:101DD00000EB014034A104F003FC1AE0BAF8001053
:101DE000032000EB014037A1F5E7BAF8001003200B
:101DF00000EB014038A1EEE70028A4D04068B8F11C
:101E0000FF3F00D038B17B68062269469847062814
:101E100006D0002097E71E4843462A4606688FE70B
:101E2000002020606060A0603079A0729DF80010F2
:101E300021809DF80510C900B1FBF0F060809DF88D
:101E40000200A0809DF90300E0809DF9040020813C
:101E5000484601F01FF9062816D02A4B196801EBF5
:101E600081060BEB860738714BF82650206847F83F
:101E7000060F60687860A068B8606420491CB1FBF8
:101E8000F0F200FB1210186001205CE72C05002026
:101E9000D404002070466F6E74206973204E554C38
:101EA0004C00000098040220705F666F6E745F75CE
:101EB0007365725F64617461206973204E554C4C88
:101EC00000000000705F666F6E745F696E666F2061
:101ED0006973204E554C4C00705F666F6E745F7571
:101EE0007365725F646174612D3E705F6765745FD6
:101EF000646174615F66756E63206973204E554C32
:101F00004C000000C804002010B504460548406895
:101F1000FFF70CFE0449401E51F830102060A1F17B
:101F2000140010BD78010020ECF301200348016883
:101F3000814201D0012070470020704788010020B5
:101F4000F0B597B005465022174902A8FEF784FA6B
:101F500016A42946204604F0BBFF07460146224648
:101F600014A006F0A7FD384604F0CEFF1BA006F033
:101F7000A1FD02AE2C6811E0207AA17BA4F10C0334
:101F8000132802D856F8200000E01598CDE900018A
:101F9000082239461AA006F08DFD2468AC42EBD128
:101FA00017B00020F0BD000084B4000064657669BD
:101FB00063650000252D2A2E73202020202020205C
:101FC000202074797065202020202020202020727D
:101FD000656620636F756E740A000000202D2D2D3C
:101FE0002D2D2D2D2D2D2D2D2D2D2D2D2D2D2D2D21
:101FF0002D202D2D2D2D2D2D2D2D2D2D0A000000C8
:10200000252D2A2E2A7320252D32307320252D3898
:10201000640A00002DE9FC4106461FA40146204643
:1020200004F056FF8046014622461EA006F042FDFF
:10203000404604F069FF22A006F03CFD356825E02B
:10204000A96805F10800A5F10C04814212D00746E9
:1020500006F077FDA18CCDE9001023460822414609
:102060001DA006F027FD384608F03EFB1F4806F08D
:1020700021FD0AE006F065FDA18CCDE900102346A4
:10208000082241461AA006F015FD2D68B542D7D1A9
:102090000020BDE8FC8100006D7367717565756592
:1020A00000000000252D2A2E7320656E74727920A1
:1020B00073757370656E64207468726561640A007C
:1020C000202D2D2D2D20202D2D2D2D2D2D2D2D2D67
:1020D0002D2D2D2D2D0A0000252D2A2E2A73202589
:1020E000303464202025643A00000000742200008F
:1020F000252D2A2E2A732025303464202025640AB9
:10210000000000002DE9FF41054617A401462046C6
:1021100004F0DEFE80460146224615A006F0CAFC09
:10212000404604F0F1FE1BA006F0C4FC08262C6813
:1021300013E000BFA4F10C0704F1080006F001FD54
:10214000F97F3A6A03900096CDE901213B460822C7
:10215000414618A006F0AEFC2468AC42EAD104B0B7
:102160000020BDE8F08100006D7574657800000006
:10217000252D2A2E732020206F776E65722020680F
:102180006F6C642073757370656E6420746872651B
:1021900061640A00202D2D2D2D2D2D2D2D202D2D6E
:1021A0002D2D202D2D2D2D2D2D2D2D2D2D2D2D2D6C
:1021B0002D0A0000252D2A2E2A7320252D382E2A9F
:1021C0007320253034642025640A00002DE9FC4189
:1021D00006461FA40146204604F07AFE80460146CA
:1021E00022461EA006F066FC404604F08DFE22A0AA
:1021F00006F060FC356825E0A96805F10800A5F146
:102200000C04814212D0074606F09BFCA18BCDE95D
:1022100000102346082241461DA006F04BFC38461C
:1022200008F062FA13A006F045FC0AE006F089FC0B
:10223000A18BCDE9001023460822414618A006F0E4
:1022400039FC2D68B542D7D10020BDE8FC810000E3
:1022500073656D6170686F7265000000252D2A2E10
:1022600073207620202073757370656E6420746807
:10227000726561640A000000202D2D2D202D2D2D6A
:102280002D2D2D2D2D2D2D2D2D2D2D0A0000000055
:10229000252D2A2E2A7320253033642025643A0008
:1022A000252D2A2E2A7320253033642025640A0028
:1022B0002DE9FC41064629A40146204604F008FE0B
:1022C000074601462246274806F0F4FB384604F04C
:1022D0001BFE25A006F0EEFB356839E095F82900D5
:1022E000A5F10C0400902346082239462EA006F0E2
:1022F000E1FB94F8340000F00F00012805D002281B
:1023000005D030B1042806D008E02AA004E02CA0B3
:1023100002E02EA000E030A006F0CCFBA06A01464F
:1023200000E0401C0278232AFBD0E26A401A101A0F
:1023300064235843B0FBF2F3D4F830C0206CCDE9ED
:10234000000CE069081A811826A006F0B3FB2D687E
:10235000B542C3D10020BDE8FC81000074687265FD
:1023600061640000CC680100202D2D2D20202D2D32
:102370002D2D2D2D2D202D2D2D2D2D2D2D2D2D2D9A
:10238000202D2D2D2D2D2D2D2D2D2D20202D2D2DA4
:102390002D2D2D20202D2D2D2D2D2D2D2D2D2D2094
:1023A0002D2D2D0A00000000252D2A2E2A73202510
:1023B00033642000207265616479202000000000F1
:1023C0002073757370656E640000000020696E698B
:1023D000742020200000000020636C6F73652020B3
:1023E0000000000020307825303878203078253003
:1023F00038782020202025303264252520202030E8
:10240000782530387820253033640A002DE9FC41E6
:10241000054619A40146204604F05AFD0646014629
:10242000224617A006F046FB304604F06DFD1EA0C4
:1024300006F040FB2C6814E0A4F10C031F460822B0
:10244000D7E90901CDE90001314620A006F032FBB1
:10245000787AC00701D023A000E025A006F02AFB6F
:102460002468AC42E8D107F003FE014624A006F040
:1024700021FB0020BDE8FC8174696D6572000000DD
:10248000252D2A2E732020706572696F6469632080
:10249000202074696D656F75742020202020202015
:1024A000666C61670A000000202D2D2D2D2D2D2D2D
:1024B0002D2D2D202D2D2D2D2D2D2D2D2D2D202D66
:1024C0002D2D2D2D2D2D2D2D2D2D0A00252D2A2E96
:1024D0002A732030782530387820307825303878C5
:1024E000200000006163746976617465640A00000D
:1024F00064656163746976617465640A0000000054
:1025000063757272656E74207469636B3A307825F6
:102510003038780A000000002DE9F04F89B092466B
:102520008B460646002400E0641C305D202803D062
:10253000092801D05C45F7D34FF0FF387CB3194828
:1025400004F10609184F056811E0062217A1286852
:10255000FDF7E9FF50B9286822463146801DFDF796
:10256000E2FF18B9296811F8090020B10C35386864
:102570008542EAD314E0AC688CB120216846FDF7AF
:1025800084FF6A465946304603F00CFB38B1694671
:10259000A047CAF80000002009B0BDE8F08FFFE7AF
:1025A0004046F9E7280200202C0200205F5F636D9F
:1025B000645F00002DE9F0411E4615460C46069F5B
:1025C000FDF7ACFEDFF850E004EB440271463EF943
:1025D000223001EB8201A34211D1D1F804C0B445ED
:1025E0000DD1B1F802C0AC4509D1D1F808C0BC4545
:1025F00005D100BFFDF796FE0020BDE8F0815B1C11
:1026000003D0FDF78FFE0720F7E72EF822404E603B
:102610004D808F60EEE700007002002010B50C4680
:10262000FDF77CFE0A4904EB440331F92320521CD8
:1026300009D04FF0FF3221F8232001EB8301002263
:102640004A604A808A60FDF76DFE002010BD0000E0
:10265000700200202DE9FC5FDFF8A8B00C464FF0B7
:1026600040094FF0E02A4FF00048012A01D0EAB3B8
:1026700018E0FDF753FE0746234904EB440031F907
:102680002020521C0BD001EB80008078C0F3810029
:10269000012811D002280CD003280FD105E03846BC
:1026A000FDF740FE0620BDE8FC9F204603F088FDB4
:1026B00010B103252E4601E0022501260021CDE9B7
:1026C0000015204633460A4603F0E9FC0F49A020D6
:1026D00081F80004CAF800914FF4BE7003F0A6FD23
:1026E000CBF804833846FDF71DFE08E0FFE74FF402
:1026F000BE7003F09BFDCBF80883CAF880910020E0
:10270000D1E70000006000407002002006E000E019
:102710001CB50846042A0BD2DFE802F0020B0D0FAD
:10272000002100910B4601220191114603F0B7FCF4
:102730001CBD002102E0032100E00121BDE81C4096
:1027400003F0C6BC084603F03BBD38B5012468461B
:10275000009132B103F026FD00998C40C0F8084585
:1027600038BD03F01FFD00998C40C0F80C4538BD02
:1027700010B5110006D0036C4A8809881B68984779
:10278000002010BD4FF0FF3010BD70B51D46140085
:1027900001D0042D01D0002070BD026C2188926808
:1027A00090476080284670BD10B51C46110001D0CE
:1027B000042C01D0002010BD036C4A8809885B6896
:1027C0009847204610BD2DE9F04116460F460446B5
:1027D000002503E03946B047641C6D1C20780028B2
:1027E000F8D12846BDE8F0812DE9FC411F4604469A
:1027F000DDE90831DDE90A65143040600060C4E9B4
:102800000827C4E90A310A46232118461C3406F079
:1028100071FAD4E903014218D4E90101124B121FE5
:1028200006F092F844F81A0B002004F801690F4AE8
:1028300004F8036BE4E8020544F8105901C404F8F5
:102840003C0B01C444F874090090234601901946DA
:1028500004F1440007F0A5FC0548816809B1204651
:1028600088470020BDE8FC81E19C0000ED9F00004E
:102870009001002010B5029C24F001044472C0E9CC
:1028800007120021C0E9093114304060006010BD1A
:10289000F0E905124A60D0E9001211604060006062
:1028A000704700002DE9F041144688460546FDF7C3
:1028B00035FD07462C49A86C08420DD1E86C01682B
:1028C00001291CD001210160286C0B4622460669B3
:1028D00041462846B04742E02846EE6C05F038FDF8
:1028E000844200D30446F088A96C0219C1F38F21F9
:1028F0008A420FD2316822460144404619E06FF007
:1029000006043846FDF70EFD204606F0C7FF0020FE
:10291000BDE8F0810A1A31680144404606F0AAF980
:10292000F088A96C0219C1F38F21521A4144081A88
:10293000316806F09FF9E86C816811B10CB1002193
:102940008160C288111989B2C180AA6CC2F38F223A
:10295000914204D3B1FBF2F302FB1311C18038465C
:10296000FDF7E0FC2046D3E700FCFF0370B5054609
:102970001848854200D9054605F03AFD164CD4F8B2
:1029800004050121284420F07F40C4F80813C4F84E
:1029900040054FF4A0763146204603F0C4FF4FF4C3
:1029A0008035C4F8045307F063FBBFF34F8F20BF9B
:1029B00020BFC4F808533146204603F0B4FFA115E8
:1029C000204603F0B0FF0120C4F80403BDE87040C6
:1029D00005F01CBDFAFFFF0000100140416800290E
:1029E00001D080680847704770B58AB00E4605462A
:1029F0002022464902A8FDF72FFD454CE86B00B1A7
:102A0000044600252069C0F800553168B1F5165F0D
:102A100042D040480890307910F0C00F3ED00E20D0
:102A20008DF81D0007208DF824008DF81C500495AA
:102A30000595A0690390E06902900090684603F054
:102A4000A3FB009A01219140C0F80815029803F0F9
:102A500052FB029803F063FB0022039800952B467B
:102A60001146019503F002FB20690899C0F824156E
:102A70009DF81D009DF81C2021691043C1F86C05CC
:102A8000DDE902122069C0F81425C0F80C159DF884
:102A90001C00012805D00BE01F48BBE78DF81D5036
:102AA000C0E7DDE904122069C0F80825C0F8101558
:102AB0004FF48E71206903F046FF4FF48471206952
:102AC00003F041FF4FF4A271206903F03CFF4FF483
:102AD0009271206903F037FF20691049C0F8041390
:102AE000206903F07BFF9DF82410FEF743FD206969
:102AF00003F074FFFEF731FD20690421C0F80015D2
:102B00000348001F04600AB0002070BDE0B500005B
:102B10003C02002000E0D701005027000402020020
:102B200070B5404BC06B1B681C4600B104462129A0
:102B300057D009DC3C4E4FF0010510291CD011295B
:102B400008D0202904D137E0222952D023294AD0A5
:102B5000012070BD206945602069C0F808632069C4
:102B600003F03CFF00F01F018D404009800000F1A0
:102B7000E020C0F8805153E04FF48471206903F0E5
:102B8000E2FE4FF4A271206903F0DDFE4FF4927172
:102B9000206903F0D8FE2069C0F80463206903F0BF
:102BA0001DFF0721FEF7E6FC206903F017FFFEF783
:102BB000D4FC2069056033E0012A02D0022A07D044
:102BC0002EE021684FF4165048641849206905E04A
:102BD00021684FF4E130486415492069C0F8241594
:102BE0001EE0A3421CD0206800F14401FFF7FCFE68
:102BF00016E020690021C0F8001521694FF0FF3070
:102C0000C1F81405C1F80C05A06903F088FAA069A1
:102C100003F071FAE06903F082FAE06903F06BFAFD
:102C2000002070BD3802002004020200005027007E
:102C300000E0D70170B50C49C06B4FF0FF350C6850
:102C400000B104464FF484763146206903F076FEE5
:102C500038B13146206903F076FE2069D0F81805B6
:102C6000C5B2284670BD00003802002070B50D4680
:102C70000C49C06B0C6800B104464FF48E763146A7
:102C8000206903F060FE2069012181602069C0F89D
:102C90001C553146206903F051FE0028F9D001206F
:102CA00070BD00003802002072B603F047FD00BF7F
:102CB00003F08AFB0028FBD1104C0121208801EB96
:102CC00000400FA103F08CFC10480068C00700D042
:102CD00000BE2088022101EB00400DA103F080FC22
:102CE000BFF34F8F0948E43801680D4A01F4E061F1
:102CF00011430160BFF34F8F00BFFDE72C0500209B
:102D0000466174616C206572726F7200F0ED00E0D4
:102D100053797374656D20726573657400000000EB
:102D20000400FA050EB500210091CDE901106A46B4
:102D300044F20100FFF7B8FF0EBD00007FB500248C
:102D40009020CDE900043B4A0C233BA1A2F13400C2
:102D500005F0F3FF08B1FFF7E5FF6FF07F40CDE925
:102D6000000434480023364A36A1B43007F019FA7B
:102D700037A006F0E1FF10B1374806F08DFF34A010
:102D800006F0DAFF14244FF4806598B93249032025
:102D90007831CDE90015CDE9020400232F4A2CA19A
:102DA0002D4807F079F810B1FFF7BCFF02E02A4880
:102DB00007F0DEF823A006F0BFFF10B1264806F0AA
:102DC0006BFF20A006F0B8FFA0B90420CDE90204F3
:102DD0002349CDE9001522480023224A19A1783859
:102DE00007F05AF810B1FFF79DFF03E01C48783850
:102DF00007F0BEF8184800231A461BA1203806F039
:102E0000D9FA08B1FFF78EFF13487038006A68B925
:102E100011484C38C0690028FDD00F48002214A189
:102E2000703806F08BF808B1FFF77CFF04B0002083
:102E300070BD000070C701206576746D717400006C
:102E4000CD36000065767474696D6572000000000F
:102E50006576747461736B0070C80120792E000070
:102E600060CD0120F130000065767473656D00005F
:102E70006D757465780000000EB50B4C4FF0FF3691
:102E8000002533460C226946084805F087FF0028D4
:102E9000F7D10298A0600198606002990098884775
:102EA000A5606560EDE70000080000203CC7012038
:102EB0003EB505460C4607A006F03EFF002807D0A9
:102EC0000C22694605480295009405F0EFFFC0B258
:102ED0003EBD00006576747461736B003CC70120D1
:102EE0002DE9F84307460E4603EB4300C0EBC31041
:102EF0004FF4FA7101EBC0004900B0FBF1F500247A
:102F00009046012D05D831463846FFF7D1FFBDE880
:102F1000F8831E4806F072F808B1FFF703FF1C485B
:102F200050F8241019B1641C402CF9DB12E0402C3D
:102F300010DA40F8247000EB8407C7F80061C7F886
:102F4000008307F095F813490968401A0090284457
:102F5000C7F800020D4806F005F808B1FFF7E2FED9
:102F6000402C03DB0120FFF7DDFED0E707482430CB
:102F700007F09EF905486A460021243007F0D2F890
:102F80000248503006F028FAC1E7000000C80120CE
:102F900060D101200800002038B5054600244FF418
:102FA0007A71184806F02AF808B1FFF7BBFE002135
:102FB00015480A4650F82130AB4202D140F8212092
:102FC0000124491C4029F5DB0E4805F0CBFF08B170
:102FD000FFF7A8FE9CB107F04BF80C490968401AAE
:102FE00000900848243007F063F906486A4600213B
:102FF000243007F097F80348503006F0EDF92046EA
:1030000038BD000000C8012060D101200800002068
:1030100010B5124B124A1349002000F05DFB114914
:1030200004460E4B104A1031012000F055FB0D49AB
:1030300004440A4B0D4A2031022000F04DFB09499F
:103040000444064B0A4A3031032000F045FBE042BD
:1030500001D0002010BD012010BD0000054C000073
:10306000C0C10000C0FB012020B60000EC1D010023
:10307000281B01000148C06870470000B004002010
:10308000062803D2024951F82000704700207047FB
:10309000B00400200146064A002000BF52F820304C
:1030A0008B4204D0401CC0B20628F7D306207047DC
:1030B000B00400200148806870470000B004002080
:1030C000302801D306A07047084A131F1B7852F816
:1030D0002320526810580278002AF4D1084670471D
:1030E0006E6F206B65796E616D650000F8040020DD
:1030F0001CB53A4C4FF0FF394FF47A7A4FF0000884
:103100006FF000474946364806F088F93448CDE963
:103110000078464601AA01212C3807F003F8304810
:103120005146503805F06AFF08B1FFF7FBFD002556
:1031300054F82500D8B104EB8501D1F8002201989C
:10314000824205D9D1F80022101AC1F8000201E02C
:10315000C1F80062D1F8000248B954F8250044F8DB
:103160002560D1F80023D1F80011FFF7A1FE6D1CF6
:10317000402DDDDB5FF0000554F8250078B104EB4D
:103180008506D6F8000210B90020FFF7CBFDD6F86F
:1031900000020099884202D2D6F8000200906D1C0D
:1031A000402DE9DB0E48503805F0DCFE08B1FFF792
:1031B000B9FD0098B842A5D00028A3DD08486A46AA
:1031C00000212C3806F0AEFF05482C3807F00CF82B
:1031D00006F04EFF0349086094E7000060D101202B
:1031E00050C8012008000020401A20F07F4070479E
:1031F00038B504467AB1626059B1062000900023C8
:103200002246064906A006F0A5FF206018B100205E
:1032100038BD0420F2E7072038BD0000DD2900009A
:1032200061707074696D65720000000038B5044605
:1032300001EB4100C0EBC1104FF4FA7101EBC0008B
:103240004900B0FBF1F00090012811DB206878B153
:10325000407AC00701D0002038BDA2606A46002134
:10326000206806F05FFF206806F0BEFF0028F3D05C
:10327000072038BD10B528B1006818B107F018F85C
:10328000002010BD072010BD00F002B800F008B803
:1032900072B602480168491C016070479C0000201A
:1032A00003490868401E086000D162B670470000FC
:1032B0009C00002070B503F037FC08B1FFF732FD29
:1032C0004FF4FA750A4C02E0052006F0C3FC2078A2
:1032D00010B96D1EADB2F7D2002020700548032151
:1032E0000088BDE8704001EB004003A103F078B90D
:1032F000300000202C05002065726173696E670044
:1033000000B585B014220D496846FDF7A5F80022E6
:103310000B49684603F012FC08B1FFF703FD0948AA
:103320000321008801EB004007A103F059F900F0E8
:1033300093F90B490020087005B000BD60B1000092
:10334000C17C00002C050020515350492065786154
:103350006D706C6520737461727465642E0000007A
:10336000300000202DE9F04792460C460646DFF873
:10337000548022E0FF2C01D8204601E04FF48070F9
:1033800085B252462946304603F046FCB0F10009AA
:1033900001D0FFF7C7FC4FF4FA7702E0052006F0F2
:1033A00059FC98F8000010B97F1EBFB2F6D2002178
:1033B00088F80010AA442E44641B002CDAD1484639
:1033C000BDE8F087300000202DE9F04790460C461C
:1033D0000546DFF868902BE008F0FF00C0F580702C
:1033E000844200D2204686B242462146284603F057
:1033F0002BFCB0F1000A01D0FFF794FC4FF4FA77F0
:1034000002E0052006F026FC99F8000010B97F1EA6
:10341000BFB2F6D2002189F8001009480321B04458
:103420000088354401EB0040A41B06A103F0D8F846
:10343000002CD1D15046BDE8F087000030000020BC
:103440002C050020646174612077726974696E676D
:10345000202E2E2E0A0000002DE9F0470546861C7E
:1034600090460F464FF001090020FFF70DFF1B4C5F
:1034700020683860D4E90001401AA16804F5077794
:10348000081A0EE00121384602F0FAFB02F0EAF8D1
:103490000146384602F0F4FBD4E90001401AA16865
:1034A000081A401C8642EDD8B8F1000F03D0052061
:1034B00065F3891002E0062065F39F50A268216839
:1034C000114004EB8101C860206830442060002076
:1034D000FFF7DCFE4846BDE8F087000054EC012011
:1034E00030B482680468531C8360A154D0E901128F
:1034F0008A4202D330BC02F08EBC30BC7047000060
:10350000034803C8814201D1012070470020704761
:1035100054EC012010B51BA005F0CCFA1C4C21780E
:103520001CA005F0C7FA2078C00702D01FA005F044
:10353000C1FA2078800702D51FA005F0BBFA2078D9
:10354000400702D51FA005F0B5FA2078000702D584
:1035500020A005F0AFFA2078C00602D520A005F023
:10356000A9FA2078000607D509480F300168BDE8A0
:1035700010401DA005F09EBABDE810401EA005F049
:1035800099BA0000627573206661756C743A0A001E
:1035900029ED00E05343425F434653525F42465396
:1035A000523A3078253032582000000049425553B5
:1035B00045525220000000005052454349534552A5
:1035C00052200000494D5052454349534552522024
:1035D00000000000554E53544B455252200000004D
:1035E00053544B45525220005343422D3E424641D4
:1035F000523A253038580A000A00000070B5084CCD
:10360000050009D010342168002907D0086820601F
:10361000496828468847F6E70834F4E770BD00009B
:1036200078EE0120054A012120B1012805D19170D1
:10363000FFF7E4BF51700020FAE7704778EE0120F1
:1036400010B501F0B9FE002010BD10B501F0F1FF7A
:10365000002010BD002070470EB5164940F2022030
:10366000ADF80800D1E90001CDE9000100221146C2
:10367000684603F0C7F908B1FFF754FB99208DF8AD
:10368000000000221146684603F0BCF908B1FFF7BC
:1036900049FB01208DF8000003208DF80100002275
:1036A00002A9684603F0AEF9002801D0FFF73AFB03
:1036B0000EBD000058B1000010B50021024802F014
:1036C000EAFA80F3100010BD70EE0120014805F009
:1036D00083BE000050C801202DE9F0410C46184976
:1036E00000EB800001EB80051F461646142128469A
:1036F000FCF7CBFEA7B13B46002212491248FEF769
:1037000061F8A8B1C5E900677089608130892081BE
:103710000E4860600E48E56020600020BDE8F08142
:103720000C480321008801EB00400BA102F058FF78
:10373000104A0FCA84E80F004FF0FF30EEE7000098
:103740000C040220D73BA56DCC040020911B000087
:10375000151D00002C050020705F6765745F6461B3
:1037600074615F66756E6320696E76616C69646111
:1037700074650A00D4040020026812B18A4204D998
:103780004A600160704728B1024650688842FAD901
:1037900000B148605160704730B500684A6801F177
:1037A0000803884221D003E044688C4203D02046BD
:1037B0000028F9D119E0C0B1046800F108052544DA
:1037C0008D4212D152B10D682B44934206D111683B
:1037D0006319103119440160516804E00A682244F9
:1037E000083202604968416030BD002AFCD0086898
:1037F00003449342F8D113681844083008605068B5
:10380000486030BD02688A420BD14A6802600020DD
:10381000486070475068884202D1486850607047DD
:103820000246002AF6D170472DE9F05F04006FD000
:10383000206908B1FFF7F8FF217800200122252335
:10384000262627272825DFF8F4864FF0220A4FF096
:103850002D0B4FF029094FF02E0E1C2970D2DFE8F6
:1038600001F06F0EA1A7A7A7A7B9CDDBF9F1F0EF83
:10387000EEEDECEBEAE96FE8E7E6E5E4A0E3A1783A
:10388000480718D5D8F80400242100F8011BA168C6
:10389000097A00F8011BA1680989090A00F8011BCF
:1038A000A1688968090C00F8021BA1688968090EE3
:1038B00000F8011CCFE28807A0683AD5002870D034
:1038C000027AD21E0C2A6CD2DFE802F00606231B15
:1038D0001B2323232323232309071CD4D8F80410F4
:1038E00001F8013BC8F80410027B01F8012B828922
:1038F000120A01F8012BC268120C01F8022BC068F1
:1039000034E0090707D4D8F8041001F8016BE9E79F
:1039100001E3090705D5D8F80410242201F8012B8A
:10392000E0E7D8F8041001F8017BDBE701F8010CAF
:10393000F6E10028C3D0427CD21E0C2AC3D200E09C
:10394000FAE2DFE802F006061C15151C1C1C1C1C04
:103950001C1C090705D5D8F80410242201F8012BF6
:1039600013E0D8F8041001F8013B0EE0000EDDE78B
:103970000907F0D4D8F8041001F8016B05E0090735
:10398000E9D4D8F8041001F8017B1430C8F8041009
:1039900001F8010B020A01F8012B020C01F8022BBD
:1039A000E4E7BFE1D8F8040000F801AB217920E09A
:1039B000D8F80400242100F8011B217900F8011B2C
:1039C000A188090A00F8011B6168090C00F8021BB4
:1039D00061686CE76078012804D0022807D00328CA
:1039E0000AD094E2D8F8040000F8012B33E2022157
:1039F0009FE200F8011B2EE203219AE26078012881
:103A000004D0022804D0032804D080E2042190E2EC
:103A100005218EE206218CE26078012814D002286C
:103A200014D0032814D072E25EE266E2E2E17AE1A9
:103A300011E1BBE08EE07DE06EE05FE050E041E050
:103A400032E023E014E005E00D2172E20E2170E285
:103A50000F216EE26078012804D0022804D00328E8
:103A600004D054E2072164E2082162E2092160E205
:103A70006078012804D0022804D0032804D046E24C
:103A80000A2156E20B2154E20C2152E2607801280F
:103A900004D0022804D0032804D038E2102148E2E0
:103AA000112146E2122144E26078012804D0022864
:103AB00004D0032804D02AE213213AE2142138E288
:103AC000152136E26078012804D0022804D00328AA
:103AD00004D01CE216212CE217212AE2182128E248
:103AE0006078012804D0022804D0032804D00EE214
:103AF00019211EE21A211CE21B211AE2607801281A
:103B000004D0022804D0032804D000E21C2110E2D3
:103B10001D210EE21E210CE26078012804D002284B
:103B200004D0032804D0F2E11F2102E2202100E2A8
:103B30002121FEE120690021002892D0C06801E027
:103B4000C068491C0028FBD1D8F804002C2200F8DA
:103B5000012B4EE7206910B10178012903D00178CB
:103B6000192914D0D3E1407814E0032817D003209A
:103B700000F01AFACBE100BFD8F8040000F8015BAE
:103B8000CEE100BFD8F8040000F8019BCDE14078F9
:103B900000F00F000128EFD00228F3D0E5E7D8F8B5
:103BA00004002A2100F8011B2F2122E721690029A6
:103BB0008FD091F800C0BCF1010F8AD1D1F808C0B4
:103BC0006178012904D0022917D003298FD12AE076
:103BD000D8F804000CF1140C4FEA1C21037080F893
:103BE00001C081704FEA1C41C1704FEA1C61017134
:103BF00080F805A08271C27154E0D8F804100CF16D
:103C0000140C4FEA1C230E7081F801C08B704FEA30
:103C10001C43CB704FEA1C630B7123234B718A71D9
:103C2000C871022058E0D8F804100CF1140C4FEAC7
:103C30001C230F7081F801C08B704FEA1C43CB70BE
:103C40004FEA1C630B7124234B718A71C87108728F
:103C5000487203205EE02169002963D091F800C01A
:103C6000BCF1010F5ED1D1F808C06178012904D000
:103C700002291CD0032955D135E0D8F804000CF1F5
:103C8000140C4FEA1C21037080F801C081704FEAC8
:103C90001C41C1704FEA1C61017180F805A082715E
:103CA0000421C17105722F2141720A30D3E0D8F886
:103CB00004100CF1140C4FEA1C230E7081F801C0A3
:103CC0008B704FEA1C43CB704FEA1C630B712323AC
:103CD0004B718A71C8710520087281F809902F20F4
:103CE00088720B311CE0D8F804100CF1140C4FEA68
:103CF0001C230F7081F801C08B704FEA1C43CB70FE
:103D00004FEA1C630B7124234B718A71C8710872CE
:103D10004872062088722A20C8722F2008730D313D
:103D2000C8F80410F3E02169E9B391F800C0BCF1D0
:103D3000010F38D194F801C08968BCF1010F06D099
:103D4000BCF1020F1CD0BCF1030F2CD134E0D8F829
:103D500004001431242606700F0A417087700E0C7F
:103D6000C6704FEA116C80F804C043718171C7714D
:103D7000067280F809C080F80AA0C272027366E079
:103D8000D8F80430143124251D700F0A59709F7023
:103D90000D0CDD704FEA116C83F804C05E719971EF
:103DA000DF711D7200E058E083F809C02321997289
:103DB000DA72187302206AE0D8F8043014314FF038
:103DC000240983F800900E0A59709E700D0CDD7066
:103DD0004FEA116C83F804C05F719971DE711D7236
:103DE00083F809C083F80A90DA72187358739873CD
:103DF000032070E0216981B391F800C0BCF1010F8C
:103E00002BD194F801C08968BCF1010F06D0BCF138
:103E1000020F23D0BCF1030F79D13FE0D8F80400A2
:103E20001431242606700F0A417087700E0CC6707C
:103E30004FEA116C80F804C043718171C77106723A
:103E400080F809C080F80AA0C2720421017345738A
:103E50002B2181730F30C8F8040058E0D8F80430E3
:103E6000143124251D700F0A59709F700D0CDD70E0
:103E70004FEA116C83F804C05E719971DF711D7295
:103E800083F809C023219972DA72187305205873D8
:103E900083F80E902B20D873103322E0D8F804302A
:103EA00014314FF0240983F800900E0A59709E7067
:103EB0000D0CDD704FEA116C83F804C05F719971CD
:103EC000DE711D7283F809C083F80A90DA721873E4
:103ED000587398730620D8732A2018742B205874AE
:103EE0001233C8F8043012E0D8F8041001F8010BBE
:103EF00001F8010B01F8020B18E5A078000706D4C1
:103F0000607801280AD002280DD0032810D0E0687C
:103F100008B1FFF789FC0020BDE8F09FD8F8040045
:103F200000F801BB97E7D8F8040000F801EB92E72E
:103F30002F21D8F804005CE5082019E6BC01002018
:103F40002DE9F0410446002100F07BFD80210D4861
:103F5000FCF79BFA0C480D4D0026066028600948C6
:103F600068605CB12B272046E468C660FFF75CFC04
:103F700024B1686800F8017B6860F4E70020BDE8C0
:103F8000F081000068FA012068F90120BC010020DE
:103F90000148007870470000C4010020014900205A
:103FA00008707047C4010020014908700020704764
:103FB000C4010020014951F820007047C8010020C9
:103FC00010B500F073F900F0E1F8FFF7E7FF00200B
:103FD00010BD0000104810B5416891F82110890704
:103FE00003D40E490020087013E0016821B180223B
:103FF0000A48FCF761FA0CE001F0CEFD08B108A117
:1040000000E009A10548FCF785FA09A10348FCF77F
:1040100047FA024810BD000020020020E8FA012003
:104020006D7368200000000066696E7368200000F0
:104030003E0000002DE9F0412A4FC01C20F003058E
:1040400005F108063C6800E064681CB12068B042D5
:10405000FAD926E0DFF890807C6819E00021434619
:1040600004F1080201EB410003EBC00090F811C01D
:10407000BCF1000F02D04069904202D0491C0829CF
:10408000F0DB20466468082902D1083000F02EF8E1
:10409000002CE3D13C6800E0646804B32068B042BF
:1040A000FAD321686019491B083940F8081F2560B8
:1040B00061684160606021460A48FFF7A3FB002069
:1040C000606008482146001DFFF756FB04F1080018
:1040D00029460446FCF7D9F92046BDE8F0810020C6
:1040E000FBE7000004020020A8F8012010B5083802
:1040F000044601460748FFF785FB06482146001F96
:10410000FFF73AFB21460348BDE81040001FFFF7C8
:1041100043BB00000802002010B580210648FCF7D0
:10412000B4F906490448782208600260002242601F
:1041300010464A6010BD0000E8F60120040200208D
:1041400010B500F0B3F800F021F800F0E9FCFFF73B
:1041500025FFFFF7E1FF002010BD00000A4A002103
:1041600001EB810312F8233013B1491C1029F7DB4E
:10417000102906D001EB810102F8210002EB810039
:10418000704700207047000068F7012010B54FF419
:10419000A0710248FCF779F9002010BD68F70120F2
:1041A00010B504460220FFF7D9FF08B1047110BD15
:1041B0000620FFF7F9FE002010BD70B50646002569
:1041C00000F0E8FC040001D001260CE0304600F0CD
:1041D00021FA040001D0022605E0304600F08AF9F9
:1041E00004000CD004260120FFF7B8FF05000AD018
:1041F000012E0DD0022E0BD0042E0AD108E00D2086
:10420000FFF7D2FE06E00620FFF7CEFE002070BDCD
:10421000AC60AE70284670BD10B504460320FFF7B1
:104220009DFF08B1446010BD0620FFF7BDFE0020D1
:1042300010BD10B504460420FFF790FF08B144609C
:1042400010BD0620FFF7B0FE002010BD10B50446DB
:104250000620FFF783FF08B1446010BD0620FFF77A
:10426000A3FE002010BD70B505460520FFF776FFC0
:10427000040016D02846FCF72BF9401CFFF7DAFEA5
:1042800060602846FCF724F9024629466068FCF77E
:1042900013F92846FCF71CF9616800220A542046ED
:1042A00070BD0620FFF780FE002070BD10B59C2178
:1042B000FCF7EBF8002010BD70B5054602C00024E5
:1042C00000F0AAFB281D00F0B0FB01263CE01F28EF
:1042D00016D0142820D015281ED016281CD0172838
:1042E0001AD0182818D0192816D06E71D5F8980051
:1042F00070B1284603F069F9E06050B304461CE051
:104300006E71D5F8980018B1284603F05EF90BE0FD
:10431000284603F05AF90DE06E71D5F89800002890
:10432000284605D003F01FFBE0600028E6D104E03A
:1043300003F019FB0446C5F89800D5F8980000284A
:1043400006D0281D00F071FB212801D02028BED105
:1043500070BD281D00F069FBEFE7000070B5064650
:1043600024480C46406890F82100C00702D022A0E3
:1043700004F0A0FB21463046FFF79EFFFFF708FE42
:1043800060B1FFF705FEFFF715FE01461BA004F024
:1043900091FB00BFFFF7FCFD28B125E0D6F898009F
:1043A000FFF7CEFDF6E700F011FC00F09DF8C0B27B
:1043B00021385D280ED200F097F8054600F094F8F9
:1043C000044600F091F8C1B22B4622460CA004F03E
:1043D00071FB09E000F088F8044600F085F801461A
:1043E00022460CA004F066FB3046BDE87040FFF7A3
:1043F000E7BD0000200200200A00000025730A002B
:1044000009272563272C2025642C20307825303877
:10441000780A00000925642C203078253038780A85
:1044200000000000034810B5406804F0D5FF0020EC
:1044300010BD00002002002070B5044603F0A8FE65
:1044400005002CD0194C6068D0F8A802A8422CD0E6
:1044500040F24311284603F0C5FE002825D16068CC
:10446000D0F8A80238B103F07BFE60680021D0F8D4
:10447000A80203F058FF6068502100F51570FCF7A2
:1044800004F86068002180F8A41280F8A512C0F832
:10449000A8522846BDE87040054903F044BF2146B4
:1044A000BDE8704003A004F005BB70BD20020020F1
:1044B0002544000066696E73683A2063616E206E61
:1044C0006F742066696E64206465766963653A205E
:1044D00025730A000349496811F8212F60F341024E
:1044E0000A707047200200200148006870470000F1
:1044F00068F9012070B505461048114E046805E0C2
:1045000029462068FBF7EBFF30B10C343068844259
:10451000F6D30C4804680BE0204670BD2846FBF734
:10452000D7FF024629466068FBF7FDFF20B12468EB
:10453000002CF3D1002070BD201D70BD280200208A
:104540002C02002010020020024A10600248016084
:1045500070470000280200202C0200207CB518497A
:104560001848FFF7F1FF1849184800F049F84FF4D0
:104570002B71012003F018FC154C6060D0B10A21AA
:104580000620CDE900014FF400630022114912A07A
:1045900005F03CFB054600231A4611A1606804F0B3
:1045A00009FF0120FFF796FF15B1284605F0E0FC52
:1045B00000207CBD0CA004F07DFA4FF0FF307CBDE4
:1045C000FC7A01001C7901003C7B01001C7B01008E
:1045D0002002002069460000747368656C6C00005E
:1045E00073687278000000006E6F206D656D6F72E9
:1045F0007920666F72207368656C6C0A0000000099
:10460000024A10600248016070470000300200203A
:104610003402002070B505461048114E046805E0CC
:1046200029462068FBF75BFF30B1103430688442C4
:10463000F6D30C4804680BE0204670BD2846FBF713
:1046400047FF024629466068FBF76DFF20B12468EA
:10465000002CF3D1002070BD201D70BD3002002061
:10466000340200200C020020E14C08B5606890F88C
:10467000211041F0010180F8211000F5DC70FFF7F6
:104680005FFD6068D0F8A80220B903F01DFC08B1F6
:10469000FFF7D2FEFFF79EFC04F00CFA4FF0FF3656
:1046A000002703E03146606804F0B8FE606801232B
:1046B0006A46D0F8A802314603F00AFE0128F1D17B
:1046C0009DF800501B2D07D0606890F8201001293C
:1046D00007D002290ED017E06168012081F8200080
:1046E000E4E75B2D02D080F820700DE0022180F815
:1046F0002010DBE780F82070412D3FD0422D59D0AB
:10470000442D7CD0432D7BD0002DCFD0FF2DCDD09C
:10471000092D76D07F2D75D0082D73D00D2D72D038
:104720000A2DFCD090F8A412502901D380F8A4726D
:1047300090F8A53290F8A4128B4271D2CA1A00F5F3
:10474000157100F255201944184404F0B9FA606854
:1047500090F8A51200F515700D54606890F82110BE
:10476000C90707D090F8A51200F515700144A1A063
:1047700004F0A0F9616891F8A55214E1418C002978
:1047800094D0491E89B2418401EB810100EB0111F3
:10479000502200F515702631FBF75EFE606800F5CB
:1047A0001570FBF795FE616881F8A40281F8A502F7
:1047B000084621E0818C428C0B46491E8A4202DA6F
:1047C000521C428402E0002B8AD04184418C50224A
:1047D00001EB810100EB011100F515702631FBF7AB
:1047E0003BFE606800F51570FBF772FE01466068DD
:1047F00080F8A41280F8A51205F008FF56E703E040
:104800000FE021E04DE08DE090F8A5020028F5D002
:1048100079A004F04FF9606890F8A512491E10E0E5
:10482000C7E090F8A51290F8A4229142E6D200F5D4
:104830001570095C71A004F03DF9606890F8A5124C
:10484000491C80F8A51231E7002503E06AA004F0B6
:1048500031F96D1C606890F8A502A842F6DC656825
:1048600067A005F5157504F025F901F095F9012803
:10487000284613D000F0E8FDFFF7ACFB01462A46BE
:1048800060A004F017F9606800F51570FBF720FED2
:10489000616881F8A40281F8A50207E701F0AAF88F
:1048A000EAE790F8A5120029A8D090F8A422491EA2
:1048B000521ED2B2C9B280F8A42280F8A5128A4250
:1048C00026D900F2552300F51570521A0B440844FE
:1048D000194604F0F5F9606890F8A41200F5157017
:1048E0000F54606890F8A51200F51570014447A0B8
:1048F00004F0E0F8606890F8A55203E03EA004F0F0
:10490000D9F86D1C606890F8A402A8429BDBF5E71B
:1049100040A004F0CFF8606890F8A41200F515707C
:104920000F54C3E605F088FE01F036F9012811D0D6
:1049300061683B2291F8A43201F515715A54606800
:1049400090F8A412B9B100F5157100F5DC70FFF70D
:1049500005FD17E06068254690F82100C00702D0E9
:1049600027A004F0A7F8686890F8A41200F5157065
:1049700001F09EF806E090F82100C00702D020A0C8
:1049800004F098F8FFF726FB04F094F860685021D3
:10499000254600F51570FBF778FD686823E016A042
:1049A00004F088F86D1C606890F8A402A842F6DC58
:1049B0000BE000F515700D54606890F82100C007F9
:1049C00003D029460DA004F075F8606890F8A41291
:1049D000491CC9B280F8A41290F8A522521C80F894
:1049E000A52250299DD380F8A47280F8A5725DE6B7
:1049F000200200202573000008000000256300004D
:104A00000A000000257325730000000008257320AC
:104A1000200800000820080070B50D4604469421C7
:104A2000FBF733FDC4F8905070BD10B504464078D4
:104A300010B10020607002E0204606F0BFF8207A36
:104A400010BD70B504000D4632D02078132808D070
:104A5000152806D0162804D01A2802D0192803D009
:104A600006E00821206904E015B10021206900E07A
:104A70002069FFF7E6FF0021E068FFF7E2FFA0787A
:104A8000042801D02843A070206910B140786070DC
:104A90000EE020780122032101280BD0022834D017
:104AA000032836D0042834D0052832D0062830D048
:104AB000002070BDA0784FF00003C6074FF002053C
:104AC0000FD0A0680028F3D0407C0F2823D2DFE865
:104AD00000F0221A201C1C201E1E20202020202036
:104AE00020008007E4D5A0680028E1D0007A0F28D4
:104AF00011D2DFE800F010080E0A0A0E0C0C0E0EA0
:104B00000E0E0E0E0E006370D2E76270D0E7657075
:104B1000CEE76170CCE70320FFF746FAC8E7000054
:104B200010B5C0210248FBF7B0FC002010BD00000A
:104B3000A8F801202DE9F0474FF0FF38144E8946C0
:104B400082464446002500BF05EB450006EBC00049
:104B5000074610225146FBF7E6FCB8B1787C10B945
:104B6000601C00D12C466D1C082DEDDB601C0DD0A7
:104B700004EB440006EBC000054610225146FBF74B
:104B80009BFC85F811902046BDE8F0874046FBE786
:104B9000A8F8012070B50C4D0646002404EB440033
:104BA00005EBC00010223146FBF7BDFC10B1641CC0
:104BB000082CF3DB082C04D004EB440005EBC00008
:104BC00070BD002070BD0000A8F8012070B50A4833
:104BD0000A4C00F580750A4EC4E9010506E000BFE5
:104BE00010F8011BA06056F821008047A068411B07
:104BF0008029F5D370BD000068F901201002002063
:104C0000D4B4000010B514460B460246E11C184609
:104C1000FEF7A8FB204610BD38B504468DF800000D
:104C200069460320ABBE204638BD000010B5124CCB
:104C30002068800702D511A003F03CFF20684000E7
:104C400011D50D48C01E007808B1FEF763FC0A4874
:104C5000001F007808B100F00DFE0748801E008894
:104C600008B106F01BF92068002804DABDE81040FE
:104C700008A003F01FBF10BD2CED00E06661696C59
:104C8000656420766563746F722066657463680A74
:104C9000000000006465627567206576656E740AC1
:104CA0000000000070B50446B2FBF1F001FB1020DB
:104CB00083B218464FF0FF3609E095420ED0401CF3
:104CC000B0FBF1F501FB150080B2984205D000EB76
:104CD000400554F82550002DEFD1304670BD00003E
:104CE00010B502A003F0E6FE002010BD48656C6C14
:104CF0006F2052542D546872656164210A000000CF
:104D00002DE9FC5F0E008346DDE90C47C6F100008B
:104D100098469246814600D40846012503E000BF2C
:104D200090FBFAF06D1C5045FADAA84500D94546CB
:104D300024B1002E01DB780700D5641EB80702D528
:104D4000B8F1000F0AD0F80708D13CB1A54205D24E
:104D500020215846641EFEF7C3FBF6E7002E02DA58
:104D60004E462D2102E0780703D52B215846FEF749
:104D7000B7FB07F0030002280BD1B8F1000F08D1F0
:104D80003CB1A54205D230215846641EFEF7A8FB6F
:104D9000F6E7CDE90047434652463146584606F00D
:104DA00023F8BDE8FC9F024600201268930702D05A
:104DB000530702D47047500714D502F003000128AE
:104DC00002D002280CD105E0C2F383100B68801CCE
:104DD000184404E00223086803EB92521044086070
:104DE00001207047086800EB9253C2F38910401C01
:104DF000EEE70268134602E08A4204D01268002AF5
:104E0000FAD10B6001607047C0F3871110B500F054
:104E10003F000B280AD1022908D1054C0E20217829
:104E200004F024FA207880F00100207010BD00000A
:104E30001800002070B588B01422314902A8FBF791
:104E40000BFB4FF0A050049026208DF80B00FF20A4
:104E50008DF80A0028208DF80900272003258DF8F9
:104E600008008DF8145025208DF816000126002426
:104E70008DF8186008208DF819008DF80C40234635
:104E8000224602A91F4801F0F7FE08B1FDF74AFFCC
:104E9000CDE90054012200231146272001F0B4F887
:104EA000CDE90054012200231146282001F0ACF87E
:104EB000292001F090F901222920009400231146B5
:104EC000019401F0A1F80F2004F0FEFF29200090CA
:104ED000684601F03DF900998E40C0F80C65052048
:104EE00004F0F2FF292001F076F9782004F0ECFFBD
:104EF0000448083000F008F808B0002070BD000039
:104F0000ACB2000074B100001FB5044611480FC8D0
:104F10008DE80F0007E0012809D0022806D160685B
:104F200004F0D2FF0C3420780028F4D11FBDD4E95E
:104F300001210948FBF790FA6068019001230022E3
:104F40006946064801F0BEFF0028EBD0FDF7EAFEF7
:104F5000E8E700009CB2000084E9012074B1000081
:104F60002DE9F04186B01D461446DDF8308000F092
:104F700035F8184A01AE012307CA86E8070004A8DD
:104F800000902C208DF8100000226946124801F094
:104F900099FF08B1FDF7C6FE6C43670000254FF688
:104FA000FE7611E07C1BB44200D3344608EB0500CA
:104FB000CDE9000400231A466946074801F082FF44
:104FC00008B1FDF7AFFE2544BD42EBD306B0BDE806
:104FD000F0810000D4B2000074B1000070B51F4E23
:104FE0001D460C4686B04ACE0DF10C0C8CE84A00EA
:104FF0002A218DF80010010A8DF801108DF80200A9
:105000001044401E010A8DF803108DF80400CDF8FD
:1050100008D00123002202A9114801F053FF08B172
:10502000FDF780FE2B208DF80000200A8DF801008E
:105030006019401E010A8DF802408DF803108DF8AA
:1050400004000123002202A9054801F03BFF0028CB
:1050500001D0FDF767FE06B070BD0000C4B20000CD
:1050600074B1000010B51F2806D01E2806D02928CC
:1050700007D0282807D00AE0002100E001210F20F6
:1050800003E0002100E00121102004F0EFF80020EF
:1050900010BD000070B504F0EBFF0C4C054610206D
:1050A000217904F0E3F8207980F001002071AFF25B
:1050B0001B00FDF771FF95224FF4FA730021AFF248
:1050C0002B00FDF70DFF256170BD000018000020CA
:1050D00010B50121102004F0C9F8BDE810400148C6
:1050E000FDF75ABF9550000010B500210D2004F0C7
:1050F000ABF800210E2004F0A7F800210F2004F0E7
:10510000A3F80021102004F09FF801210D2004F0E5
:10511000ADF801210E2004F0A9F801210F2004F0C0
:10512000A5F80121102004F0A1F80B210023054A65
:10513000084604F06DF801210B2004F079F80020F6
:1051400010BD0000094E000010B504F091FF054CA1
:10515000A06061780F2004F089F8607880F0010089
:10516000607010BD1800002010B504F081FF054CE0
:10517000E060A178102004F079F8A07880F00100B8
:10518000A07010BD1800002070B510A003F092FCB4
:105190001AA003F08FFC25A003F08CFC2D4CE078C6
:1051A000002812D12D4D2C4A00212868FEF720F846
:1051B00008B1FDF7B7FD2A4A01216868FEF718F823
:1051C00008B1FDF7AFFD0120E07070BD5A4A2D53C4
:1051D000444B3A52542D546872656164B6A8CAB102
:1051E000C6F7D4DA5A4AB2DCC3CFB5C2BFAAB7A257
:1051F000B0E5C9CFB5C4D3A6D3C30A006C65645F5C
:1052000074696D656F7574315F68616E646C657229
:10521000203473BAF3D6BBBBE1D6B4D0D0D2BBB482
:10522000CEBECDD7A2CFFA0A000000006C65645F45
:1052300074696D656F7574325F68616E646C6572F8
:1052400020BBE1C3BFB8F43273D1ADBBB7D6B4D085
:10525000D00A0000180000204951000050B10000A1
:105260006951000010B5FFF78FFF0C4C00224FF47E
:105270007A612068FDF7DAFF08B1FDF753FD0022DF
:105280004FF4FA616068FDF7D1FF08B1FDF74AFD00
:1052900004F0EEFE02498860C86010BD50B1000005
:1052A0001800002010B5084C2068FDF7E3FF08B196
:1052B000FDF738FD6068FDF7DDFF002803D0BDE88D
:1052C0001040FDF72FBD10BD50B1000070B51EA0FD
:1052D00003F0F0FB2148224D04680BE0022221A1DB
:1052E0002068FBF720F920B1D4E900121EA003F0DA
:1052F000E1FB0C3428688442F0D31F48046804E0C2
:105300001EA0616803F0D6FB2468002CF8D11DA014
:1053100003F0D0FB2048214D046805E0D4E90012D9
:1053200011A003F0C7FB103428688442F6D31C4850
:10533000046804E011A0616803F0BCFB2468002C41
:10534000F8D1002070BD00002D2D46756E63746984
:105350006F6E204C6973743A0A0000002802002026
:105360002C0200205F5F0000252D313673202D2D8B
:105370002025730A00000000100200205B6C5D20F5
:1053800025730A002D2D5661726961626C65204C8F
:105390006973743A0A0000003002002034020020D1
:1053A0000C02002010B5092003F0F2FEBDE8104009
:1053B000001DFCF7C5BD000010B5074C07A06169D2
:1053C00003F078FB0AA0A16903F074FBE169BDE872
:1053D00010400CA003F06EBBE4000020746F7461F9
:1053E0006C206D656D6F72793A2025640A000000AB
:1053F00075736564206D656D6F7279203A20256440
:105400000A0000006D6178696D756D20616C6C6FCC
:105410006361746564206D656D6F72793A202564EF
:105420000A00000010B5062003F0B2FEBDE81040EF
:10543000001DFCF7EFBD10B5032003F0A9FEBDE889
:105440001040001DFCF75EBE2DE9F04780460027A6
:105450005C483E46B9463C46DFF86CA1056827E04B
:105460005AA0296805F021FA08B34046296805F0DA
:105470001CFAE0B957B956A003F01CFB98F80000DD
:1054800020B12C682046FBF723F881467F1C98F852
:105490000000BFB230B12046296805F0F9F948454F
:1054A00000DA8146D5E900124DA003F003FB0C356C
:1054B000DAF800008542D3D34D48056822E0404623
:1054C000696805F0F2F9E0B95FB941A003F0F2FABA
:1054D00098F8000028B124B96C682046FAF7F8FF64
:1054E00081467F1C98F80000BFB230B12046696841
:1054F00005F0CEF9484500DA81463EA0696803F020
:10550000D9FA2D68002DDAD13C483D4F056823E0DB
:105510004046296805F0C9F9E8B95EB939A003F039
:10552000C9FA98F8000028B124B92C682046FAF787
:10553000CFFF8146761C98F80000B6B230B1204605
:10554000296805F0A5F9484500DA8146D5E9001239
:1055500023A003F0AFFA103538688542D8D32D4820
:10556000056822E04046696805F09FF9E0B95EB938
:1055700024A003F09FFA98F8000028B124B96C68C1
:105580002046FAF7A5FF8146761C98F80000B6B2CF
:1055900030B12046696805F07BF9484500DA81465C
:1055A0001DA0696803F086FA2D68002DDAD1002C61
:1055B00006D04A4621464046BDE8F04704F039BAD5
:1055C000BDE8F087280200202C0200205F5F000069
:1055D0002D2D66756E6374696F6E3A0A00000000C7
:1055E000252D313673202D2D2025730A0000000053
:1055F000100200205B6C5D2025730A003002002041
:10560000340200202D2D7661726961626C653A0A60
:10561000000000000C0200205B765D2025730A006C
:1056200010B5022003F0B4FDBDE81040001DFCF7EA
:10563000CDBD70B5FAF772FE0446012003F0A8FD57
:10564000001DFCF735FE05462046FAF76BFE28469E
:1056500070BD10B50A2003F09BFDBDE81040001D91
:10566000FCF7D4BE2DE9FF410026234800F005FBDE
:105670002148001F074600F000FB204C60680090A6
:10568000A56800E000986946284004EB80000C30D3
:10569000FFF789FB0028F5D101AA009901EA05036B
:1056A00004EB8303491CDB6842F82030401C009166
:1056B0000228F2D3019800F0030001280BD0022841
:1056C00010D10198032101EB90500099BDF80A60B8
:1056D00001EB900005E00198BDF80A60C0F383106B
:1056E00008440090384600F0C5FA08B100986060A0
:1056F00004B03046BDE8F0816CEE012054EC01208E
:1057000010B5FDF785FC4FF4FA7340F21F1200212B
:105710002948FDF7E5FB2948032129A2008801EB70
:1057200000402DA100F060FFFF224FF4E1312F482F
:10573000FAF7A4FE0520FDF7A3FC2D4C2DA20A21AB
:1057400060601E2001F0ECFB0020FDF799FC60601A
:105750002BA11820FDF7B4FC024628211E2001F0E1
:10576000DFFB0220FDF78CFC606027A250211E2089
:1057700001F0D6FB0320FDF783FC606025A27821B1
:105780001E2001F0CDFB0120FDF77AFC606026A110
:105790000820FDF795FC0246A0211E2001F0C0FB69
:1057A0000120FDF76DFC606021A2C8211E2001F0E0
:1057B000B7FB012010BD0000955000002C05002013
:1057C00076323032332E30392E31325F36646135E5
:1057D0003362643700000000466F6E742076657295
:1057E00073696F6E203D2025730000003C0500208A
:1057F00000000020496E6E6572666F6E74000000D6
:1058000073657474696E670033EE9AA3EE99B5EE12
:10581000A0AC000034F09F9884F09F9885F09F988A
:1058200086F09F9887000000616C616D00000000A9
:105830005274746872656164EE99ABE2808DF09F7A
:105840009881000010B502F031FBBDE81040FFF771
:1058500057BF70B516460D46FEF780FC04461DB1D5
:1058600014B12561EE6002E00E20FEF79DFB20469C
:1058700070BD000010B518A003F01CF91B4C217876
:105880001BA003F017F92078C00702D01EA003F078
:1058900011F92078800702D51EA003F00BF92078BB
:1058A000000702D51EA003F005F92078C00602D536
:1058B0001EA003F0FFF82078000607D50B480C3037
:1058C0000168BDE810401CA003F0F4B8BDE810402A
:1058D0001D4803F0EFB800006D656D206D616E61CD
:1058E0006765206661756C743A0A000028ED00E077
:1058F0005343425F434653525F4D4653523A3078CA
:1059000025303258200000004941434356494F4C4E
:10591000200000004441434356494F4C2000000002
:105920004D554E53544B4552522000004D53544B4D
:1059300045525220000000005343422D3E4D4D4140
:10594000523A253038580A000CAF00002DE9F047D4
:10595000C7880446181D16468946B0FBF7F1B0FB10
:10596000F7F207FB12009A193A44D21CB2FBF7F285
:10597000DDF820A001E02468491E0029FBD13D1A72
:105980008846B54216D818E0BAF1000F05D02118A4
:1059900009EB08002A46091D04E0204409EB080130
:1059A0002A46001DFAF758FD00202468761BA844FB
:1059B000B74201D9354600E03D46002EE4D1BDE8AE
:1059C000F087000030B5024659B100F09FFE00217B
:1059D000074C09E004EB810315685B88AB4202D1F8
:1059E0001160002030BD491C8142F3D3052030BD39
:1059F000280500202DE9F0478046002500782C4638
:105A000018B12248224F066831E0BDE8F047002176
:105A1000084600F085B806221EA13068FAF783FD1B
:105A200020BB306800F106094046FAF751FD0246F6
:105A300049464046FAF777FDC0B925B94C46484675
:105A4000FAF746FD05464946204601E0401C491C40
:105A500002781AB10B780BB19A42F7D0001BA8421A
:105A600000DA054649460DA003F024F80C363868E4
:105A70008642D0D3002C06D02A4621464046BDE8B7
:105A8000F04703F0D6BFBDE8F087000028020020F1
:105A90002C0200205F5F636D645F000025730A00C5
:105AA0000249012008600020704700001C0200200D
:105AB00038B5044601E0491E641C20782028FAD03D
:105AC0000928F8D031B16A462046FCF725FD18B107
:105AD000204604E0002038BD009838BD401C017805
